:100000000C943D000C9464000C9464000C94640007
:100010000C9464000C9464000C9464000C946400D0
:100020000C9464000C9464000C9464000C946400C0
:100030000C9464000C9464000C9464000C946400B0
:100040000C94F5000C9464000C9464000C9464000F
:100050000C9464000C9464000C9464000C94640090
:100060000C9464000C946400DB04EB0457059005C9
:10007000C9054C068006BA063707E1ECF2E085ECCC
:1000800094E001C08193EF3FF907E0F3D9F3112425
:100090001FBECFEFD4E0DEBFCDBF11E0A0E0B1E0E6
:1000A000E8E3F1E402C005900D92A237B107D9F759
:1000B00022E0A2E7B1E001C01D92A13CB207E1F746
:1000C0000E9466000C949A200C940000A2E1B0E01B
:1000D000ECE6F0E00C945E2080E8809361001092E2
:1000E000610014B815B817B818B81AB81BB884B797
:1000F000877F84BF109260000E9452015D9A559ADA
:10010000549A5C9A0E94E300789460E076E980E07B
:1001100090E00E946D018FE70E948B0781E00E94B2
:10012000840780E090E00E94940211E096B19F70F5
:1001300081E09F3009F080E093B19770973011F41F
:1001400090E101C090E0892B90917201891719F01C
:100150008093720115C09091C901891789F080932D
:10016000C9010E9494076091C90170E080E090E0AD
:100170006051704B8E4F9F4F0E949509109326013E
:100180008091CC01882341F08091CC0181508093F3
:10019000CC010E94DF01F4CF20E030E046E550E0E2
:1001A00063E771E0CE0101960E94C002009709F456
:1001B000BDCF5D98AC0163E771E0CE0101960E946E
:1001C00084115D9AB3CF1092800083E085BDA8981A
:1001D0008CE886BDEEE6F0E0808181608083E4E615
:1001E000F0E080818F7D808308951F920F920FB67B
:1001F0000F9211242F938F939F938CE886BD80914B
:10020000CC018F3F29F08091CC018F5F8093CC018E
:100210008091CA019091CB01019649F08091CA0169
:100220009091CB0101969093CB018093CA019F914D
:100230008F912F910F900FBE0F901F901895EEE6A3
:10024000F0E080818E7F80838091CA019091CB0104
:100250002081216020830895EEE6F0E080818E7F8A
:1002600080831092CB011092CA01808181608083CB
:1002700008958FEF94E0815C9240089521EC32E084
:10028000F90184E02F3F380709F048F42F5F3F4F12
:100290004081453CA9F3CF01815C9240089580E004
:1002A00090E0089588E18093C10086E08093C200C9
:1002B000E4E6F0E080818D7F80835A98529A5E9ABE
:1002C0005F9A569A579A08956091000170910101C2
:1002D00080910201909103010895611526E972074A
:1002E0008105910519F170F4603825E272078105E6
:1002F0009105E1F061152BE472078105910509F084
:100300003FC014C061152CE2720721E082079105FD
:1003100069F0611522EC720721E08207910531F046
:10032000611521EE72078105910551F56093000179
:100330007093010180930201909303018091C000AA
:1003400082608093C00020910001309101014091B2
:1003500002015091030183E0220F331F441F551FF8
:100360008A95D1F760E070E880E790E00E9427204E
:10037000215031093093C5002093C40081E00895D5
:1003800080E00895882311F05A9A08955A980895A4
:1003900080E00E94C20184E09FEF2091C00025FF11
:1003A000FCCF9093C6008150C1F78091C00086FFBA
:1003B000FCCF8091C00080648093C000089580913C
:1003C000CE01882331F081508093CE01811101C08C
:1003D0005E9A8091CD01882331F081508093CD01C8
:1003E000811101C05F9A08955F9824E12093CD01A7
:1003F000680F791F8617970751F02091C00025FFDD
:10040000FCCFFC012191CF012093C600F3CF809156
:10041000C00086FFFCCF8091C00080648093C00044
:100420000E942C0108958091C00083FF07C0809135
:10043000C6008091C00087FDFACF02C080E0089519
:100440005E9884E18093CE0181E008952091C00000
:1004500027FF0AC02091C600FC0120835E9884E13A
:100460008093CE0181E0089580E00895ABE0B0E094
:10047000ECE3F2E00C945720D62E790195E59983B0
:100480009FEF9A838B836FEF4B870E943412DC823D
:10049000682F8D2D0E9434124B854D83682F842F39
:1004A0000E9434121E83682F812F0E9434120F8302
:1004B000682F802F0E9434128095888701151105BE
:1004C000A1F067015701A00EB11E8FEF9FEFCA1474
:1004D000DB0439F0BC01F60181916F010E946C12BE
:1004E000F6CF8095909589879A870E94C80181E010
:1004F0000E94C20168E070E0CE0101960E94F40102
:100500000115110551F0B801C7010E94F40162E024
:1005100070E0CE0109960E94F40180E00E94C201C1
:100520002B96EAE00C9473200E94520181E008951A
:10053000FC018091ED0183FD20C0DB0111969C91AF
:1005400090FB84F98093ED015093DF014093DE012D
:100550002093DC013093DD01C901309729F020811F
:10056000222311F0218101C02FEF2093DB01209184
:10057000ED0128602093ED01089580E090E008955A
:10058000ADE1B0E0E6ECF2E00C944F207C0180910C
:10059000E6019091E701892B41F47093E7016093A4
:1005A000E6015093E5014093E4018091ED018370F1
:1005B00041F08091F0019091F101892B09F4BEC1C5
:1005C0008BC401E010E042E0C42ED12C44244A94B4
:1005D000542C63E0A62EB12C75E0672E712CE4E05C
:1005E0008E2E912C19828091F0019091F101813031
:1005F000910569F140F08230910509F462C00397DA
:1006000009F408C18AC10E941302882359F00E948C
:100610002C018091E9018F3F09F483C18F5F8093A2
:10062000E9017FC1CE0101960E942602882309F4C8
:1006300078C10E942C018091E9018F3F19F08F5FF2
:100640008093E9018981853509F06BC135C00E942D
:100650001F014F9708F061C10E941302882359F0CF
:100660000E942C018091E9018F3F09F456C18F5FF0
:100670008093E90152C1CE0101960E94260288238F
:1006800009F44FC10E942C018091E9018F3F19F0BC
:100690008F5F8093E90189818F3F59F41092DA01CD
:1006A0001092D9018093D801D092F101C092F0014B
:1006B00038C1853509F031C11093F1010093F00183
:1006C00030C10E941F014F9708F022C10E941302FF
:1006D0008111A9C0CE0101960E942602882309F447
:1006E00020C10E942C018091E9018F3F19F08F5F9A
:1006F0008093E9018091D9019091DA01009779F412
:100700006091D80189810E9434128093D801898137
:100710008093E8011093DA010093D90102C181307E
:10072000910579F46091D80189810E9434128093F7
:10073000D80189818093EA01D092DA01C092D9016F
:10074000F0C08230910579F46091D80189810E94CE
:1007500034128093D80189818093E301B092DA0149
:10076000A092D901DEC08330910589F46091D8014F
:1007700089810E9434128093D80189811092EB0103
:100780008093EC019092DA018092D901CAC0843042
:100790009105B9F46091D80189810E943412809347
:1007A000D80129818091EB019091EC01820F911D7C
:1007B0009093EC018093EB017092DA016092D90181
:1007C000B0C0059709F0A4C06091D80189810E944A
:1007D00034128093D801853509F09AC08091EB01DD
:1007E0009091EC01009709F487C02091E4013091C9
:1007F000E5012817390708F48BC01092DA0110922E
:10080000D9015092D7014092D601B092F101A09245
:10081000F00187C00E941F014F9708F079C00E9425
:100820001302882359F00E942C018091E9018F3F27
:1008300009F46EC08F5F8093E9016AC0CE01019612
:100840000E942602882309F46CC00E942C0180912A
:10085000E9018F3F19F08F5F8093E9018091D90101
:100860009091DA012091EB013091EC01821793070E
:10087000C0F46091D6017091D70189810E946C12F9
:100880009093D7018093D6018091D9019091DA019C
:100890002981E091E601F091E701E80FF91F20833B
:1008A00012C082179307A9F46091D6017091D70105
:1008B00089810E946C129093D7018093D601809118
:1008C000D9019091DA0101969093DA018093D901D0
:1008D00028C02F5F3F4F8217930719F56091D6010B
:1008E0007091D70189810E946C129093D7018093F7
:1008F000D601883B904F61F48091EA019091E2012A
:10090000891711F08F3F49F48091ED01826003C097
:100910008091ED0181608093ED011092F1011092C0
:10092000F0018091ED01837009F043CE8091F001D8
:100930009091F101892B09F055CE3BCE8091E201D7
:1009400087FDCAC282E0A82EB12C95E0692E712CD9
:1009500088248394912C34E0C32ED12C2091E00183
:1009600030E02F5F3F4F8091D50190E00196B901B3
:100970000E941320382E582E4091E201842F90E0DF
:100980000196B9010E941320482E2090D401822D97
:1009900090E00196B9010E941320682F8091EE012A
:1009A0009091EF018930910508F08DC28C5C9F4FCA
:1009B000FC010C9449204093D4014093D50182E37B
:1009C00090E09093D3018093D2018091ED018B7FD1
:1009D0008093ED016DC10E941F01843F914068F03A
:1009E0001092E90186E090E09093EF018093EE0190
:1009F0008091ED018D7F8E7FC9C08091ED0180FFD8
:100A000002C08E7F5DC281FF67C29091E801933082
:100A1000B1F178F49923A9F0913009F03FC000E0DA
:100A200010E020E030E04091E2016091E30182E0DB
:100A300033C09530B1F0963089F580628093ED0136
:100A40002DC09091EA019F3F49F11092D1018D7F15
:100A50008B7F8093ED01B092EF01A092EE0121E037
:100A60001EC080628093ED018091EA018F3FB1F05A
:100A7000E8E0F0E0F093EF01E093EE010FC00091A9
:100A8000EB011091EC012091E6013091E7014091DA
:100A9000E2016091E30184E00E94360220E080914F
:100AA000EE019091EF01089709F097C113C2809170
:100AB0002601882389F0109226018DE492E090931C
:100AC000DF018093DE01AE014D5E5F4FBE016F5FBF
:100AD0007F4F0E94CA1102C080E090E09093DD0138
:100AE0008093DC01009791F02091DE013091DF01CD
:100AF0008C014091E2016FEF86E00E943602809106
:100B0000D1018F5F8093D10120E005C08091E10188
:100B10008093D10121E0D092EF01C092EE01DAC1C1
:100B20000E941F018732914028F08091E10180935B
:100B3000D10107C08091ED0180FF08C08E7F8093B6
:100B4000ED01D092EF01C092EE0108CF81FFC4C148
:100B50002091EA019091E201291311C09091E801DE
:100B6000963029F0973031F0943049F403C0806218
:100B70008093ED01D092EF01C092EE0104C09092FB
:100B8000EF018092EE018091ED018D7F8093ED0168
:100B9000E5CE9091D1018091E101981718F18091F3
:100BA000ED01282F247082FD0BC0241209C0409251
:100BB000D50100E010E020E030E0422D642D64C05B
:100BC0008091D2019091D3018133910508F501966E
:100BD000222369F0241459F01092D1019093D3018B
:100BE0008093D201B092EF01A092EE01B7CE909324
:100BF000D3018093D20100E010E020E030E0622DCC
:100C000080E00E9436021092D0011092CF0130C0D5
:100C1000521033C02223C1F06093D50100E010E0F0
:100C200020E030E081E00E9436028091E201809372
:100C3000D4011092D0011092CF0181E090E0909306
:100C4000D3018093D20193C04093D50100E010E01E
:100C500020E030E0652D80E00E9436021092D00145
:100C60001092CF0181E090E09093D3018093D20164
:100C70001092E90185E090E028C15092D50100E092
:100C800010E020E030E0652D81E00E9436021092F5
:100C9000D0011092CF016BC06D8F0E941F016D8D2E
:100CA0008036910550F48091E901853008F414C133
:100CB0009092EF018092EE0151CE8091CF01909100
:100CC000D001892BA1F481E090E09093D001809332
:100CD000CF0100E010E020E030E04091E2016091BF
:100CE000D40180E00E9436021092E901F5C06093C1
:100CF000D50100E010E020E030E04091E20128C0A2
:100D00004D8F0E941F014D8DFAE04F9FA0011124CD
:100D10004C505E4F8417950730F28091E20190E0CD
:100D200001962AE0289F8001299F100D11240C5064
:100D30001E4F0E941F018017910708F0CDC04092FE
:100D4000D50100E010E020E030E04091E201642DA8
:100D500081E00E9436028091E2018093D4011092DA
:100D6000D0011092CF011092D3011092D20187E0EE
:100D700090E0ABC08091ED0181FF33C09091EA011A
:100D8000941326C09091E801923011F58B7F8093E7
:100D9000ED016091E3016093D4011092E90100E05C
:100DA00010E020E030E080E00E9436028091E20115
:100DB0008093D5011092D3011092D2011092D001EC
:100DC0001092CF017092EF016092EE0120E005C019
:100DD0009092EF018092EE0121E08091ED018D7FF4
:100DE00043C00E941F012091ED018036910510F44F
:100DF00020FF72C022FD2EC06091D4014091E2011B
:100E0000641791F01092E90100E010E020E030E07A
:100E100080E00E9436021092D0011092CF017092B1
:100E2000EF016092EE0111C0561689F03092D501A3
:100E300000E010E020E030E0462F632D81E00E94CA
:100E400036021092D0011092CF0120E00AC0246037
:100E50002093ED011092D101B092EF01A092EE012A
:100E600021E08091ED018E7F8093ED0133C0809170
:100E7000ED0183FF13C00091DC011091DD01209191
:100E8000DE013091DF016091DB0186E00E943602D5
:100E90008091ED01877F8093ED0109C000E010E0B3
:100EA00020E030E06091E30187E00E94360281E0BB
:100EB00090E09093EF018093EE018091ED018D7FA2
:100EC0008093ED0109C081E090E09093EF01809361
:100ED000EE0102C0211142CD8091ED0185FF0EC0CF
:100EE0008F7D8093ED018091EB019091EC0121E0E9
:100EF000F70120832091E301218302C080E090E08C
:100F00006D96E2E10C946B2081118093E1010895CC
:100F10008091E101089587FD06C09091E201891753
:100F200010F08093E001089587FD08C08093E201EE
:100F30009091E001981710F40E948B07089580911A
:100F4000E0010895FC0181E080838091E2018183CA
:100F500011861086128680E090E0DF01A80FB91F8D
:100F60001B961C92019687309105B9F70895FC01F4
:100F70000097A1F081E080838FEF81838FEF9FEF57
:100F800091878087128680E090E0DF01A80FB91F6B
:100F90001B961C92019687309105B9F7089521E0C0
:100FA0008C30910531F08232910519F00F9709F0DC
:100FB00020E0822F0895A0E0B0E0E1EEF7E00C948D
:100FC0005520EC015B016A014901888183FB882778
:100FD00080F9FA018083888182FB882780F98183E8
:100FE000888186958170828389810E94C614F6016A
:100FF0009483838389810E94EF14F601968385830D
:101000008A8187838081882339F08B8180878C81D6
:10101000818725E030E002C023E030E0C90101967D
:10102000FE01E20FF31F2081F4012083C80FD91FB6
:10103000F801D183C083A81AB90AF701B182A0824E
:10104000CDB7DEB7ECE00C947120AFE0B0E0EBE29E
:10105000F8E00C9457205C01FB01BA01CE01019627
:101060006C018AE0D6011D928A95E9F71F861E86DB
:101070001D861C861B863097D1F18081807F19F0F8
:10108000803131F134C0CE010B967C018E01035FBB
:101090001F4F9E01215F3F4FA601CF010E94DB073A
:1010A0002F856B857C858D859E852C3029F4960156
:1010B000A5010E94FB081BC02F3029F49601A50151
:1010C0000E94F31014C09601A5010E94FF110FC0E9
:1010D00021812F87CF0102969E878D8762507109EB
:1010E0007C876B87283019F4A5010E94BE102F96CB
:1010F000EAE00C947320A0E0B0E0E1E8F8E00C94A2
:1011000053203C01EB015A014901888199818530C6
:10111000910509F447C08830910521F0029709F044
:1011200059C028C08A819B81AC81BD818F3F9F4F70
:10113000AF43B10531F40E948C096A837B838C83B1
:101140009D836A817B818C819D810E94A709882370
:1011500009F44AC0CA84DB84EC84FD840E811F81BB
:10116000288539854A815B816C817D81C3010E941C
:10117000250A3CC06A817B818C819D810E949B0DE8
:10118000882391F1CA84DB84EC84FD840E811F8165
:10119000288539854A815B816C817D81C3010E94EC
:1011A000AB0D24C06A817B818C819D810E94200FC0
:1011B0008823D1F0CA84DB84EC84FD840E811F81F6
:1011C000288539854A815B816C817D81C3010E94BC
:1011D0003E0F0CC081E090E0FA01918380838FE1A3
:1011E00090E0F901918380838FEF9FEFCDB7DEB759
:1011F000EEE00C946F20A6E3B0E0E1E0F9E00C949F
:1012000053208C014B013A01790181E090E09EABC3
:101210008DAB8FE190E09CAB8BABCE0147960E94EB
:10122000A20740E050E060E0CE0189960E9483135F
:101230009E01275D3F4FAE01495E5F4FB3018DE4D4
:1012400092E00E9499125C01F70180819501235B75
:101250003D4F6901882319F021E044E03EC0AE0112
:101260004F5F5F4FB401C8010E941F1B97FF03C06F
:1012700021E040E031C0AE014F5F5F4FF701678171
:10128000C6010E94D11B8C01C501800F911F9E01D8
:101290002D5C3F4FAE014B5C5F4FBE016F5F7F4FD8
:1012A000835B9D4F0E947B084C0197FD0FC0C501D9
:1012B000880D991D800F911F835B9D4F0E941F1CFD
:1012C0009801280D391D280F391F18C08E3FFFEFD8
:1012D0009F0741F421E044E0F7016781C6010E94C5
:1012E000CA1D0BC00BA91CA92DA93EA94CE050E0BA
:1012F000F7016781C6010E94E81D9C012A0D3B1D74
:101300004DE452E0BE01675D7F4FC3010E94980229
:10131000E696EEE00C946F2060911801709119012F
:1013200080911A0190911B0108956115710520E4C7
:101330008207910550F4609318017093190180930E
:101340001A0190931B0181E0089580E008950F93A6
:101350001F9341E0009118011091190120911A0189
:1013600030911B01061717072807390709F040E0DD
:10137000842F1F910F91089584E091E00895CF93F9
:10138000DF930E94A40DEC010E94290F8C0F9D1F7A
:101390000196DF91CF910895A0E0B0E0E2EDF9E091
:1013A0000C9459208A01E90161307105810591058C
:1013B00091F488E090E0FA01918380838091180194
:1013C00090911901A0911A01B0911B018883998312
:1013D000AA83BB831CC06B017C01F2E0CF1AD10849
:1013E000E108F1080E94A40DA0E0B0E0C816D906FB
:1013F000EA06FB0670F482E090E0F80191838083B6
:10140000C6010E94A70D688379838A839B8381E04C
:1014100017C0C81AD90AEA0AFB0A0E94290FA0E0DD
:10142000B0E0C816D906EA06FB0648F485E090E06D
:10143000F80191838083C6010E942C0FE4CF80E0E5
:10144000CDB7DEB7E8E00C947520A5E4B0E0EBE2A0
:10145000FAE00C944F203C0126961FAE1EAE269754
:1014600024961CAE1DAE1EAE1FAE24970F34110580
:101470002105310509F4C7C008F063C00F33110519
:101480002105310509F497C138F50E311105210503
:10149000310509F4B1C178F40B301105210531058E
:1014A00009F480C10C3011052105310509F09CC1FA
:1014B00062E571E0AFC00C3211052105310509F478
:1014C000B9C00E3311052105310509F08DC142E384
:1014D00050E060E070E081C109341105210531055B
:1014E00009F465C178F4003411052105310509F4CA
:1014F00065C1063411052105310509F075C163E4A4
:1015000071E088C00C3411052105310509F4D0C003
:101510000D3411052105310509F472C00B34110594
:101520002105310509F060C12091180130911901A0
:1015300040911A0150911B0168E070E00E94401731
:101540004FC1083711052105310509F46EC050F56A
:10155000023611052105310509F46FC098F40036F3
:1015600011052105310509F47CC00136110521055D
:10157000310509F039C1CE01C0960E94011A00E080
:1015800010E060C00B3611052105310509F402C1D8
:10159000003711052105310509F026C140E050E072
:1015A000BA01FCC00B3911052105310509F4FFC052
:1015B00080F4093711052105310551F10B3811056A
:1015C0002105310509F010C14EE050E060E070E007
:1015D00004C1013082E018072105310509F4F8C083
:1015E0000038E5E21E072105310509F4ECC00115BC
:1015F00012402105310509F0F7C00E943901EAC007
:1016000064E071E007C048E050E060E070E0C6C010
:1016100067E271E0CE0101960E948A1ABE016F5FF7
:101620007F4FC3010E94B817DBC044E051E060E087
:1016300070E0D3C06CE471E0EDCF41E050E060E0D9
:1016400070E0CBC0C8010E94CF07482F602FCE01A9
:10165000C0960E940F1A0F5F1F4F0932110591F7B4
:1016600020C0CE01C0960E94011A10E040E0612F18
:10167000CE01C0960E940F1A1F5F1733B9F741E0E1
:1016800068E0CE01C0960E940F1A41E062E0CE01F0
:10169000C0960E940F1A41E065E0CE01C0960E94FC
:1016A0000F1ABE01605D7F4FC3010E94A01698C053
:1016B0000E94BF091C01412C512CC114D104E1042A
:1016C000F10431F4B201A101C3010E94A81858C06D
:1016D0008FEFC816D806E806F806C9F5C12CD12C3C
:1016E0007601C39400E010E02C143D044E045F0426
:1016F00008F496C09E01205C3F4FAE014C5B5F4FEB
:10170000C701B6010E94CC0924962CAD3DAD4EAD6B
:101710005FAD249726966EAD7FAD2697C301800FEF
:10172000911F0E944017080F191F800F911FC29729
:1017300044F086E390E0F401918380830EEF1FEF85
:101740006FC0FFEFCF1ADF0AEF0AFF0ACDCF9E016D
:10175000205C3F4FAE014C5B5F4FC701B6010E945A
:10176000CC09882379F024962CAD3DAD4EAD5FAD0C
:10177000249726966EAD7FAD2697C3010E94401731
:101780008C014EC082E090E0F501918380838AE273
:1017900090E041C043E050E060E070E0C3010E948F
:1017A000E4181EC040E65AEE60E070E016C040E06B
:1017B00050E0BA0112C00E94880702C00E949F0731
:1017C000482F50E008C00E946401AB01BC0105C075
:1017D0000E943E01AC0160E070E0C3010E94A818C5
:1017E0008C0197FF0BC01CC082E090E0F501918353
:1017F000808380E290E00FC000E010E0FFEFCF16A2
:10180000DF06EF06FF0661F082E090E0F5019183CC
:10181000808382E390E0F401918380830FEF1FEFD8
:10182000C801CB5BDF4FE2E10C946B20A4E3B0E096
:10183000ECE1FCE00C9457205C016B017A014091D3
:1018400018015091190160911A0170911B01FC015E
:1018500082819381A481B581481759076A077B0764
:1018600041F081E090E0F601918380838FE190E088
:101870005AC1F501E05CFF4F60817181AE014F5F9D
:101880005F4FC5010E960E94791E97FF08C082E047
:1018900090E0F6019183808385E290E044C1F501F8
:1018A00006811781208531850C341105210531050C
:1018B00009F42AC182859385A485B5858F3F9F4F02
:1018C000AF4FBF4F41F082E090E0F60191838083FB
:1018D00082E390E028C1093411052105310509F49E
:1018E00013C108F041C00C3211052105310509F47E
:1018F0000BC1F8F4083111052105310509F404C1C3
:1019000058F40B5011092109310902301105210544
:10191000310508F001C1F8C00C3111052105310570
:1019200009F4F2C00E3111052105310509F0F4C0AA
:10193000EBC00E3311052105310509F4E5C028F48B
:1019400008531109210931093FC00034110521054F
:10195000310509F488C008F46DC00634110521056D
:10196000310509F0D9C0D0C0003711052105310576
:1019700009F4CAC0F0F4033611052105310590F4CD
:10198000003611052105310508F0BEC00B341105E4
:1019900021053105A1F10D3411052105310509F4A9
:1019A00078C0BAC00B3611052105310509F0B4C065
:1019B000ABC00B3811052105310509F4A5C058F459
:1019C0000757110921093109033011052105310596
:1019D00008F0A2C099C00B3911052105310509F4A1
:1019E00093C00038F5E21F072105310509F478C0DE
:1019F000083911052105310509F08EC085C08B819C
:101A00008C30D9F48C819D81089709F040CF8E816C
:101A10009F81A885B985009720E4A207B10508F049
:101A200036CF8093180190931901A0931A01B093B7
:101A30001B0168C08B81823041F082E090E0F601AA
:101A40009183808389E090E06EC08C819D81AE811E
:101A5000BF818F3F9105A105B10511F008F017CFA7
:101A60000E9484074FC08B81823039F78C819D8121
:101A7000AE81BF81AC01BD014150510961097109BD
:101A80004F3751056105710508F001CF0E948B07A2
:101A900039C08B81873089F6CE0104960E94D91A0D
:101AA000811116C0AE014C5F5F4F64E170E084E0CD
:101AB00091E00E949E1A81113AC022E030E0F601C6
:101AC0003183208324E130E0F701318320832FC06C
:101AD00082E090E0F6019183808389E290E023C068
:101AE0008B81823009F0A9CF6C817D818E819F81AD
:101AF0006130F2EC7F07F1E08F07910508F4C7CE63
:101B00000E946D0181E013C082E090E0F6019183B4
:101B1000808388E290E007C082E090E0F601918344
:101B2000808380E290E0F7019183808380E0E496F7
:101B3000EAE00C94732021E06A307105810591057B
:101B400008F020E0822F08958AE090E00895BC011B
:101B500080E090E00895AFE3B0E0E1EBFDE00C94AD
:101B600053203C01852F572F0F34110521053105D6
:101B700009F44FC0A0F40B3411052105310581F1A2
:101B80000D34110521053105A1F10432110521059E
:101B9000310509F07AC040E050E0BA0172C0053565
:101BA000110521053105D1F158F401351105210543
:101BB000310509F06AC060E0C3010E945B166DC088
:101BC0000F36110521053105C9F10537110521052C
:101BD000310509F05AC042E650E060E070E051C0C3
:101BE000242F382F462F62E070E0C3010E94401777
:101BF00054C0405D40931F016CE171E0CE0101963D
:101C00000E948A1ABE016F5F7F4FC3010E94B817FE
:101C100044C042E050E060E070E033C0E42FF82FB1
:101C2000EE0FFF1FEE0FFF1FE756FD4F4081518162
:101C300062817381C3010E943D192FC0CE01C096FD
:101C40000E94011A40E060E0CE01C0960E940F1A87
:101C500040E061E0CE01C0960E940F1A40E062E0D1
:101C6000CE01C0960E940F1A40E063E0CE01C096FC
:101C70000E940F1ABE01605D7F4FC3010E94A01633
:101C80000CC0C3010E94E41808C082E090E0F50196
:101C90009183808380E290E00FC097FD12C0FFEF38
:101CA000CF16DF06EF06FF0661F082E090E0F50157
:101CB0009183808382E390E0F401918380838FEFAE
:101CC0009FEFEF96EEE00C946F20A4E3B0E0EBE61C
:101CD000FEE00C9457205C017B016A01FC018281CB
:101CE0009381A481B5810A97A105B10560F081E0D7
:101CF00090E0FB01918380838FE190E0D6018D938A
:101D00009C9380E099C0F501E05CFF4F6081718198
:101D1000AE014F5F5F4FC5010E960E94791E97FF7F
:101D200008C082E090E0D7018D939C9385E290E01B
:101D30001FC0D50116960D911D912D913C911997BB
:101D4000073511052105310509F466C01A968D91F4
:101D50009D910D90BC91A02D8F3F9F4FAF4FBF4FD6
:101D600059F082E090E0D7018D939C9382E390E05C
:101D7000F60191838083C5CF0D341105210531050E
:101D800009F44AC090F4043211052105310509F423
:101D900043C00B34110521053105F1F10C3111055A
:101DA0002105310509F040C037C001351105210575
:101DB000310591F130F40F34110521053105A1F5FC
:101DC0002BC0053511052105310531F00F36110500
:101DD0002105310549F520C08B818430A9F4D50156
:101DE0001296ED91FC911397EE0FFF1FEE0FFF1F60
:101DF000E756FD4F8C819D81AE81BF8180839183A9
:101E0000A283B38381E018C082E090E0F701918360
:101E1000808389E090E072CF82E090E0F7019183C7
:101E2000808388E290E06ACF82E090E0F7019183BE
:101E3000808380E290E062CFE496EAE00C94732025
:101E400021E06A3071058105910508F020E0822FBC
:101E500008958AE090E00895BC0180E090E0089544
:101E60006A3071058105910530F4605D609324014D
:101E700081E291E0089580E090E00895AFE3B0E062
:101E8000E4E4FFE00C9453203C010F3411052105DC
:101E9000310509F46BC098F40B34110521053105A7
:101EA00009F44DC00D3411052105310509F44EC06A
:101EB000043211052105310509F076C071C00435E1
:101EC00011052105310509F46BC050F401351105E8
:101ED0002105310509F068C060E00E945B166CC006
:101EE000053511052105310509F445C00F361105E9
:101EF0002105310509F058C0CE01C0960E94011A93
:101F000040E060E0CE01C0960E940F1A40E061E020
:101F1000CE01C0960E940F1A40E062E0CE01C0964A
:101F20000E940F1A40E063E0CE01C0960E940F1A93
:101F3000BE01605D7F4FC3010E94A0163DC09A01A3
:101F4000AB0165E070E00E94401736C0CB01BA01DA
:101F50000E94300FBC01CE0101960E948A1ABE0178
:101F60006F5F7F4FC3010E94B81726C045E050E065
:101F700060E070E011C04A3051056105710540F420
:101F8000FA01EE0FFF1FEE50FE4F4081518102C05B
:101F900040E050E060E070E0C3010E94E4180CC033
:101FA00040E050E0BA01F8CF82E090E0F501918383
:101FB000808380E290E00FC097FD12C0FFEFCF1644
:101FC000DF06EF06FF0661F082E090E0F501918305
:101FD000808382E390E0F401918380838FEF9FEF11
:101FE000EF96EEE00C946F20A4E3B0E0EAEFFFE0A0
:101FF0000C9457205C017B016A01FC018281938172
:10200000A481B5810A97A105B10560F081E090E057
:10201000FB01918380838FE190E0F60191838083BF
:1020200080E0A8C0F501E05CFF4F60817181AE01E6
:102030004F5F5F4FC5010E960E94791E97FF08C043
:1020400082E090E0F7019183808385E290E0E5CF24
:10205000F501068117812085318507351105210598
:10206000310509F47FC082859385A485B5858F3FAE
:102070009F4FAF4FBF4F41F082E090E0F701918357
:10208000808382E390E0C9CF0F341105210531052B
:1020900009F460C098F40B3411052105310509F4E9
:1020A00059C00D3411052105310509F453C004321E
:1020B00011052105310509F44DC054C00435110541
:1020C0002105310509F446C038F401351105210513
:1020D000310509F43FC046C005351105210531051C
:1020E00031F00F36110521053105A1F13BC08B817F
:1020F000893041F58C819D81AE81BF81823091050F
:10210000A105B10508F09CCFF5014281538164819E
:1021100075814A3051056105710510F04AE050E0C3
:10212000FA01EE0FFF1FEE50FE4F918380838091E6
:10213000F2019091F301019711F45C9801C05C9A4F
:1021400081E018C082E090E0F7019183808389E00C
:1021500090E063CF82E090E0F7019183808388E292
:1021600090E05BCF82E090E0F7019183808380E292
:1021700090E053CFE496EAE00C947320A8E0B0E03E
:10218000E4ECF0E10C945D201D821E821F82188613
:1021900019821A821B821C829E012F5F3F4FAE0163
:1021A0004B5F5F4F0E942E1D0097B1F00196B9F072
:1021B0000E948C090D811E812F813885601771075F
:1021C0008207930764F009811A812B813C810617ED
:1021D0001707280739071CF081E08093260128960D
:1021E000E4E00C947920A0E2B0E0E9EFF0E10C9497
:1021F00055205A01790121E030E038A32F8F2FE1DB
:1022000030E03E8F2D8F46E052E00E94281C8C016A
:10221000CE0101960E94A20740E050E060E0CE01AE
:1022200043960E9483139E012D5E3F4FAE014F5F88
:102230005F4FB5018DE492E00E9499124C01835BDF
:102240009D4F6C01101611062CF021E040E0F701C3
:10225000678108C0F7018081882339F021E044E0DC
:102260006781C6010E94CA1D40C0809106029091FC
:10227000070285309105D9F08830910569F0029701
:1022800049F5AE01435E5F4FBE01615E7F4F86E060
:1022900092E00E94650E15C0AE01435E5F4FBE0125
:1022A000615E7F4F86E092E00E94160C0AC0AE018C
:1022B000435E5F4FBE01615E7F4F86E092E00E9409
:1022C000F40F882339F04FE0F7016781C6010E94BF
:1022D0005D190BC00D8D1E8D2F8D38A14FE050E084
:1022E000F7016781C6010E94E81D9401280F391F7C
:1022F0004DE452E0BE016D5E7F4FC5010E94980221
:10230000A096ECE00C947120ACE1B0E0EAE8F1E1D9
:102310000C9459207C018B016A01BE016F5F7F4FD5
:1023200082E1FB0111928A95E9F79E012D5E3F4FF4
:102330008AE0F90111928A95E9F7F80180818130EC
:1023400029F5A701C8010E9495139C018D8981116F
:102350001DC012161306D4F4C216D306B8F0898530
:102360009A85AC01415051094E3F5F4F78F0B8015A
:10237000620F731F019621F4FB018081807F31F091
:10238000A601421B530BC7010E9425086C96E8E08A
:102390000C947520A2E1B0E0E0EDF1E10C9457203F
:1023A0005C016B018A01CE0101960E94A207C60161
:1023B0000E94B70740E050E060E0C8010E9483132C
:1023C0009801AE014F5F5F4FB601C5010E9499129F
:1023D0006C010E94BC097C010E948C09AB01BC010C
:1023E00003E010E022E330E0C5018C0D9D1D0E944A
:1023F000E01A8C0D9D1D6296EAE00C947320ACE10E
:10240000B0E0E5E0F2E10C9459208A016901CE01C7
:1024100001960E94A20740E050E060E0CE014396A2
:102420000E9483139E012D5E3F4FAE014F5F5F4FB1
:10243000B8018DE492E00E9499127C0149E0F60116
:102440006781835B9D4F0E94DB1D9701280F391F19
:102450004DE452E0BE016D5E7F4FC8010E949802BC
:102460006C96E8E00C947520682770E0CB01880F2B
:10247000991F9B01220F331F220F331F822793279F
:10248000862797279B0153E0220F331F5A95E1F7C8
:10249000822793279B01E4E0220F331FEA95E1F79F
:1024A000822793279B01F5E0220F331FFA95E1F76E
:1024B000822793279B01A6E0220F331FAA95E1F7FD
:1024C000822793277695762F6627779567958627B7
:1024D000972790FB80F90895A72F90E08627BC01ED
:1024E0006F707727382F2227FC0143E0EE0FFF1F84
:1024F0004A95E1F72E273F274A2F50E0242735271A
:10250000AC01542F44275295507F24273527F4E0FF
:1025100096958795FA95E1F72827392726273727B3
:10252000CB019695982F8827979587958227932793
:102530000895A0E0B0E0EFE9F2E10C945720EC013F
:102540007B015A016901009709F4D5C021153105B5
:1025500009F4D1C0D9018C918883198212968C918B
:10256000882311F080E88983E114F10441F0F70138
:1025700080859185892B19F0898180628983A114D6
:10258000B10471F0D50118968D919C911997892B02
:1025900039F01A968C91882319F089818860898393
:1025A000F6018181882319F0898184608983D601AD
:1025B00013969C9193708981892B8983E114F1048E
:1025C00059F1F701608571856115710529F1CE0119
:1025D00002960E9465199C012D5F3F4FD7011A9604
:1025E0004C911A97FE01E80FF91F42831A968C91BD
:1025F0008823A9F0C901482F421B8C01F70152859D
:10260000451770F4F701E40FF11D4385FE01E80F53
:10261000F91F40830196EFCF02E010E001C089016D
:10262000A114B104A1F1D50118966D917C9119976F
:102630006115710561F11A968C91882341F1CE01E3
:10264000800F911F0E946519080F191F98012F5FB5
:102650003F4FF5018285FE01E00FF11F8083D50118
:102660001A968C91882391F0C901482F421B8C0146
:10267000F5015285451758F4F501E40FF11D438526
:10268000FE01E80FF91F40830196EFCF8901E114A5
:10269000F10479F0D70118968D919C911997892BA7
:1026A00041F0F6018185FE01E00FF11F80830F5F8D
:1026B0001F4FD60112968C9112978823F1F0FE01DC
:1026C000E00FF11F15968C91159780830F5F1F4FB8
:1026D00015968D919C9116978038910570F01796FC
:1026E0006D917C911897CE01800F911F0E94651902
:1026F000080F191F02C000E010E0C801CDB7DEB717
:10270000EAE00C947320FC01009771F0618381E092
:102710008083128280E091E0968385831086178201
:10272000548343838FEF81870895A4E0B0E0EBE901
:10273000F3E10C9455207C014B015A0169011C8284
:102740001B821A821982009709F403C121153105F1
:1027500009F4FFC0DC018C91F901808311968C9102
:102760001197881F8827881F828311968C91119753
:1027700082FB882780F9818311968C911197837051
:1027800090E09483838311968C9185FF3BC0BE01BA
:102790006F5F7F4FC70102960E946B198C010D5F1E
:1027A0001F4FF701E80FF91F42818114910449F08E
:1027B00029813A81D40119963C932E9318971A9641
:1027C0004C934423A1F1483018F08FEF9FEFC5C020
:1027D00020E030E0DF01A20FB31F13965C9181145B
:1027E000910429F0D401A20FB31F1B965C932F5FB5
:1027F0003F4F241778F38C010C5F1F4F4150040F9B
:10280000111D15C06115710519F402E010E00FC02B
:10281000FB0111861086128680E090E0F401E80F3B
:10282000F91F1386019687309105C1F7EECFD701C6
:1028300011968C9183FF3CC0BE016D5F7F4FC70135
:10284000800F911F0E946B19800F911F8C010F5FE9
:102850001F4FF701E80FF91F4081A114B10449F09F
:102860002B813C81D50119963C932E9318971A968B
:102870004C934423B1F1483008F0A7CF20E030E07A
:10288000DF01A20FB31F11965C91A114B10429F0CE
:10289000D501A20FB31F1B965C932F5F3F4F2417E8
:1028A00078F38C010E5F1F4F4150040F111D19C0AA
:1028B000A114B104B1F0F50180859185019629F04C
:1028C000D50119961C921E921897F501128680E088
:1028D00090E0F501E80FF91F138601968730910506
:1028E000C1F789819A81892B51F0F701E00FF11F1F
:1028F0008081D60119968C930F5F1F4F02C0F6019D
:102900001186D60112968C918823D1F05801BFEF21
:10291000AB1ABB0AF701E00FF11F808190E0F601CE
:102920009683858380389105B8F0B601695F7F4F43
:10293000C7018A0D9B1D0E946B198A0D9B1D0DC03E
:1029400080E091E0D60116969C938E931597C8016E
:1029500004C080E090E001C0C5012496ECE00C9436
:102960007120982F80FD02C080E001C080E891FDB9
:10297000806492FD806293FD806194FD886095FD86
:10298000846096FD826097FD81600895807F803429
:10299000B9F038F4803271F0803379F0803139F455
:1029A0001BC0803699F08037A1F0803561F080E05F
:1029B00090E0089584E090E0089588E090E0089524
:1029C00080E190E0089580E290E0089580E490E056
:1029D000089581E490E0089582E090E008958F707A
:1029E000863048F4E82FF0E0EE0FFF1FEA5AFE4F62
:1029F00080819181089580E090E008950F931F9366
:102A0000CF93DF93FC01411102C0108202C088E025
:102A1000808380816F3048F490E1699FB001112478
:102A2000682B608381E090E005C0806F80836183C4
:102A300082E090E04081053011052105310518F450
:102A4000042B008329C045604083EC012196DF01FF
:102A5000A80FB91F0E3F11052105310518F40C937D
:102A6000CE011AC00115110581E02807310548F48F
:102A70008EEF8C93B801CF018C0F9D1F0E946519BA
:102A800009C08FEF8C93B901A801CF018C0F9D1F56
:102A90000E94A7198C0F9D1FDF91CF911F910F915D
:102AA0000895FC0188E080836F3048F480E1689FDE
:102AB000B00111246860608381E090E005C088EF78
:102AC0008083618382E090E02081266020830895E6
:102AD000FC0188E080836F3048F480E1689FB0019A
:102AE00011246860608381E090E005C088EF8083F6
:102AF000618382E090E02081276020830895FC01BB
:102B00002081322F307F303F39F46115710561F03B
:102B10008181FB01808308C06115710541F0229518
:102B20002F70FB01208303C082E090E0089581E0D4
:102B300090E00895A4E0B0E0E0EAF5E10C945720BD
:102B40006C017A010E947F15F60100810770053043
:102B500009F042C0E80FF91F00819C012F5F3F4F31
:102B600059010F3F99F4BE016F5F7F4FC601820F7D
:102B7000931F0E94AF198A0D9B1DE114F10409F403
:102B800043C049815A816B817C8113C00E3FB9F4E7
:102B9000BE016F5F7F4FC601820F931F0E946B19AA
:102BA0008A0D9B1DE114F10479F149815A8160E09D
:102BB00070E0F701408351836283738325C0E11481
:102BC000F10441F010E020E030E0F70100831183D0
:102BD00022833383C50118C0063011F0073049F451
:102BE000E114F10489F0F70110821182128213823C
:102BF0000BC0E114F10441F010E020E030E0F701F7
:102C000000831183228333832496EAE00C9473209B
:102C1000A1E0B0E0EEE0F6E10C945C208C01F62E31
:102C20001982BE016F5F7F4F0E947F15F80180817E
:102C300083FF03C081E099819F1180E0817021961C
:102C4000E5E00C947820A1E0B0E0E9E2F6E10C9434
:102C50005C208C01F62E1982BE016F5F7F4F0E94AF
:102C60007F15F80180818770863019F481E09981A1
:102C70009F1180E081702196E5E00C947820A1E01E
:102C8000B0E0E5E4F6E10C945C208C01F62E1982AC
:102C9000BE016F5F7F4F0E947F15F80180818770B2
:102CA000873019F481E099819F1180E0817021962D
:102CB000E5E00C9478200F931F93062F10E020E09E
:102CC00030E040E061E00E94FE141F910F910895F2
:102CD000A0E0B0E0EEE6F6E10C9459208C01EB01A7
:102CE000CB010E94381A811105C0F801108281E0E1
:102CF00090E021C0CE010E943B1AC82ECE010E9456
:102D0000381AEC2CF12C9C2D990F990F990F981BC8
:102D1000F80191938F01D12CDC1459F06D2DCE0167
:102D20000E94471A0E94B114F80181938F01D39435
:102D3000F3CFC7010196CDB7DEB7E8E00C9475205C
:102D4000EF92FF920F931F93CF93DF93EC017B01E0
:102D5000CB010E943B1A082F10E020E030E00F5F0B
:102D60001F4F2F4F3F4F40E068E0CE010E94FE14FE
:102D70008C01B701CE01800F911F0E946816800F51
:102D8000911FCDB7DEB7E6E00C947720A4E0B0E069
:102D9000ECECF6E10C9459206B017A0119821A824D
:102DA0001B821C82BE016F5F7F4F0E94AF19098199
:102DB0001A812B813C81B901A801E6E176956795DE
:102DC00057954795EA95D1F75370F60151834083A3
:102DD0002F733327F70100831183228333832496D3
:102DE000E8E00C9475200F931F9344305105610562
:102DF000710529F4A801B9010E94C61602C080E03D
:102E000090E01F910F9108950F931F9389019A01EC
:102E1000AB01662757FD6095762FF6E1440F551FED
:102E2000661F771FFA95D1F72F733327402B512B4D
:102E3000622B732B0E94A7191F910F910895A0E098
:102E4000B0E0E5E2F7E10C945720EC015A0168018B
:102E5000790104E010E020E030E041E00E94FE143F
:102E60008C01A7019601B501CE01800F911F0E9430
:102E70000417800F911FCDB7DEB7EAE00C947320E2
:102E8000EF92FF920F931F93CF93DF93EC01019684
:102E90000E9404177C018C01222717FD2095322FF8
:102EA00040E06CE0CE010E94FE148E0D9F1DCDB758
:102EB000DEB7E6E00C9477208F929F92AF92BF929C
:102EC000CF92DF92EF92FF920F931F93DC014A01A2
:102ED0005B01C701B6016F5F7F4F8F4F9F4F109708
:102EE000B1F086169706A806B90688F02D93F8016A
:102EF00000E010E098010C151D052E053F0551F06E
:102F000041914D930F5F1F4F2F4F3F4FF4CF60E024
:102F100070E0CB011F910F91FF90EF90DF90CF9069
:102F2000BF90AF909F908F900895A0E0B0E0EBE944
:102F3000F7E10C945920EC017B01CB010E94D01ADF
:102F40006C01C7010E94C91A8C01C7010E94D91ADD
:102F5000E12CF12C282F42E350E060E070E0CE013C
:102F60000E945C17CB01CDB7DEB7E8E00C9475206A
:102F7000A0E0B0E0EEEBF7E10C945920EC017B010E
:102F8000CB010E94D01A01966C018C01222717FDFB
:102F90002095322F40E067E0CE010E94FE148C01A4
:102FA000C80ED91E82E3C816D1044CF4B701CE0175
:102FB000800F911F0E949517800F911F02C080E023
:102FC00090E0CDB7DEB7E8E00C947520CF92DF92A9
:102FD000EF92FF92FC016A017B01C9019A01215025
:102FE0003109AF014F5F5F4F60810E94521A882301
:102FF00011F0C60102C080E090E0FF90EF90DF90FA
:10300000CF900895A2E0B0E0E8E0F8E10C945920F8
:103010006A017B0189011A82198221153105A9F102
:103020004230510561057105C1F048F44130510548
:103030006105710529F5FC01808190E015C04330E0
:10304000510561057105C1F04430510561057105F7
:10305000B9F4B8010E94AF1918C0BE016F5F7F4F6D
:103060000E946B1989819A81A0E0B0E0F801808309
:103070009183A283B38309C0B8010E94861905C059
:10308000F8011082118212821382C6012296E8E0B2
:103090000C9475204F3F51056105710509F028F426
:1030A000FC01408381E090E0089541155105F1E075
:1030B0006F07710520F4BA010E9465190895411542
:1030C0005105610521E0720718F40E947F190895E7
:1030D0000E94A7190895A0E0B0E0E1E7F8E10C94A0
:1030E0005920EC0169017A012F3F31054105510555
:1030F00081F078F02115310581E04807510560F035
:1031000021153105410581E0580748F403E010E03E
:1031100008C001E010E005C002E010E002C004E0D9
:1031200010E0222717FD2095322F41E0CE010E94AA
:10313000FE148C01B701A601CE01800F911F0E94E1
:103140004A18800F911FCDB7DEB7E8E00C947520C8
:10315000EF92FF920F931F93CF93DF93EC010196B1
:103160000E944A187C018C01222717FD2095322FDE
:1031700040E062E0CE010E94FE148E0D9F1DCDB78F
:10318000DEB7E6E00C947720A4E0B0E0EAECF8E1EA
:103190000C945D20890119821A821B821C829E0177
:1031A0002F5F3F4F0E9402180115110549F0498118
:1031B0005A816B817C81F8014083518362837383E0
:1031C0002496E4E00C947920EF92FF920F931F93E2
:1031D000CF93DF93EC0101960E944A187C018C0189
:1031E000222717FD2095322F40E069E0CE010E9492
:1031F000FE148E0D9F1DCDB7DEB7E6E00C94772050
:10320000A0E0B0E0E6E0F9E10C945920EC0169019E
:103210007A012F3F31054105510581F078F02115E4
:10322000310581E04807510560F021153105410560
:1032300081E0580748F403E010E008C001E010E026
:1032400005C002E010E002C004E010E0222717FDF4
:103250002095322F41E0CE010E94FE148C01B7016F
:10326000A601CE01800F911F0E944A18800F911F66
:10327000CDB7DEB7E8E00C947520EF92FF920F9384
:103280001F93CF93DF93EC01CB01BA01AE014F5FE7
:103290005F4F0E94F9197C018C01222717FD2095B0
:1032A000322F40E064E0CE010E94FE148E0D9F1D7F
:1032B000CDB7DEB7E6E00C947720FC0180E2808396
:1032C0006183428383E090E00895FC017083618311
:1032D00082E090E008956115710571F0FC01208194
:1032E00030E0322F2227FB0131832083FC018181D2
:1032F000282BFB013183208382E090E00895FC01BC
:1033000060835183428383E090E00895DC01FB01F8
:103310003097D1F04C9150E060E070E0BA01552751
:103320004427408351836283738311968C91119754
:10333000582B408351836283738312968C91482B60
:10334000408351836283738383E090E00895FC019E
:10335000708361835283438384E090E00895FC018D
:10336000DB01109711F1408150E060E070E0742FB4
:103370006627552744274D935D936D937C93139750
:103380008181682B4D935D936D937C93139782811C
:10339000582B4D935D936D937C9313978381482BAA
:1033A0004D935D936D937C93139784E090E0089523
:1033B000FC015381428131812081852F942FA32FDD
:1033C000B22FFB0180839183A283B38384E090E0DA
:1033D0000895443051056105710539F0F9011082F5
:1033E000118212821382CA010895B9010E94D8196C
:1033F0000895FA01908381837283638384E090E06F
:103400000895FC01108221E030E0FC01E20FF31F7F
:1034100010822F5F3F4F20313105B9F70895FC012D
:10342000562F5695569556955F3008F5862F90E0A5
:10343000208130E08217930714F06F5F608328E0EB
:10344000529F80199109112421E030E0082E01C01B
:10345000220F0A94EAF7E50FF11D442321F0818140
:10346000822B8183089520958181282321830895CB
:10347000FC0180810895FC018081882331F0815016
:103480008695869586958F5F089580E008950097CC
:1034900039F06F3028F4FC01E60FF11D81810895A9
:1034A00080E00895FC01009711F480E008951182F6
:1034B000108262832C323105C0F780E090E0411524
:1034C0005105A1F4DF01A80FB91F13961C920196B4
:1034D0008C329105B9F781E00895DF01A80FB91F7B
:1034E00013961C9201968C329105A9F382179307CB
:1034F000A0F7DA01A80FB91F6C91A081B181AE0FBE
:10350000BF1F13966C93608171816F5F7F4F7183D2
:103510006083E8CFAB016115710551F0FB010190AB
:103520000020E9F79F0121503109261B370B02C00B
:1035300020E030E060E00E94521A0895CF93DF93BC
:10354000FA01009711F1309701F1228121111DC07C
:103550002081318126173707C0F4DC0120E030E0FC
:103560002617370781F0808191812817390730F4B9
:10357000EF01C20FD31F8B818C9301C01C922F5F70
:103580003F4F1196EDCF81E001C080E0DF91CF91F8
:103590000895009711F00396089580E090E0089553
:1035A000009721F0FC0180819181089580E090E0F6
:1035B0000895009719F0FC018281089580E0089534
:1035C000A0E0B0E0E6EEFAE10C945720EC016901CE
:1035D000009771F180E1888319829A01AB0168E05C
:1035E00070E0CE0102960E94401702965C01A6018F
:1035F00060E070E0CE018A0D9B1D0E94A818A80E05
:10360000B91EA801662757FD6095762FCE018A0D59
:103610009B1D0E94E418A80EB91EA70160E070E08F
:10362000CE018A0D9B1D0E94A8188A0D9B1D02C009
:1036300080E090E0CDB7DEB7EAE00C947320AFE015
:10364000B0E0E5E2FBE10C9457207C016B018A01BC
:103650001F8619861A861B861C861E861D861D825D
:103660001E821F82188619821A821B821C824115B3
:10367000510509F489C06730710518F48FE390E0B3
:103680007FC060E0C7010E940816882309F46CC05F
:10369000A8014E5F5F4FBE01635F7F4FC701019678
:1036A0000E94C61601965C018D859E85F801918366
:1036B0008083AE01475F5F4FBE01615F7F4FC701EF
:1036C0008A0D9B1D0E949A15A80EB91E8F85813008
:1036D00009F04AC049855A856B857C859E012B5F20
:1036E0003F4FC7018A0D9B1D0E94C418A80EB91E2A
:1036F0008D819E81AF81B885F80186839783A087ED
:10370000B187AC14BD0498F5AE01475F5F4FBE01B1
:10371000615F7F4FC7018A0D9B1D0E949A15A80EFD
:10372000B91E8F85823001F5AC14BD04E8F44985DB
:103730005A856B857C859E012F5F3F4FC7018A0D9F
:103740009B1D0E940218A80EB91E89819A81AB8127
:10375000BC81F80182879387A487B587AC14BD0428
:10376000C0F481E490E00CC08EE390E009C08FEFDC
:103770009FEFDC01F80182879387A487B58709C092
:10378000F801958B848B07C06115710521F4A12C7C
:10379000B12CC50102C08DEF9FEF2F96EAE00C948B
:1037A0007320EF92FF920F931F93CF93DF93EC015F
:1037B0007A010097E9F180E3888369838CE08A834A
:1037C000FA0102811381248135814081518160E0B9
:1037D000CE0103960E941F178C010D5F1F4FF7014A
:1037E000268137814085518561E0CE01800F911F90
:1037F0000E940019080F191FF7012285338544859F
:1038000055852F3FFFEF3F074F075F0741F062E00D
:10381000CE01800F911F0E946B18080F191F63E0E3
:10382000CE01800F911F0E945115800F911F02C081
:1038300080E090E0CDB7DEB7E6E00C94772000970B
:1038400021F063E00E946815089580E090E00895FB
:10385000AFE0B0E0EEE2FCE10C9455208C016B018E
:103860007A011F8619861A861B861C861E861D866F
:103870001D821E821F82188619821A821B821C8258
:103880006115710509F4DDC04115510509F4D9C070
:1038900060E00E940816811102C08FEFDAC0A70114
:1038A0004E5F5F4FBE01635F7F4FC80101960E946C
:1038B000C61601965C018D859E85F70191838083F4
:1038C000AE01475F5F4FBE01615F7F4FC8018A0D48
:1038D0009B1D0E949A15A80EB91E8F858130E9F6AE
:1038E00049855A856B857C859E012B5F3F4FC801BA
:1038F0008A0D9B1D0E94C418A80EB91E8D819E8141
:10390000AF81B885F70186839783A087B187AE0121
:10391000475F5F4FBE01615F7F4FC8018A0D9B1DEE
:103920000E949A152F852230A9F4A80EB91E498548
:103930005A856B857C859E012F5F3F4FC8018A0D9C
:103940009B1D0E940218A80EB91E89819A81AB8125
:10395000BC8103C08FEF9FEFDC01F7018287938763
:10396000A487B58748018A0C9B1C63E0C4010E94B0
:103970002316882309F491CF2D813E814F815885EC
:10398000B6016A197B09C4010E94A51FF701E05C1A
:10399000FF4F91838083FFEFAF1ABF0A20E030E032
:1039A000281739075CF4F401E20FF31F4181F70196
:1039B000E20FF31F46872F5F3F4FF2CFA80EB91ECD
:1039C00063E0C8018A0D9B1D0E943F168823E1F128
:1039D0002FEFA21AB20A82E4E80EF11C80E1F7018F
:1039E0008083AC14BD0490F5AE01475F5F4FBE010C
:1039F000615F7F4FC8018A0D9B1D0E949A152F851C
:103A0000243021F58A0D9B1D49855A856B857C855F
:103A10009E012F5F3F4F800F911F0E940218098166
:103A20001A812B813C81B901A801415051096109DA
:103A30007109403151056105710550F4F7010083AA
:103A400009C080E090E006C08EEF03C0C50102C04F
:103A50008BEF9FEF2F96ECE00C947120A9E0B0E083
:103A6000E4E3FDE10C9455206C015B017A018901CE
:103A700019861D821E821F82188619821A821B8255
:103A80001C826115710509F468C0AE014B5F5F4F80
:103A9000BE01675F7F4F0E949A154C01898588237C
:103AA00019F08FEF9FEF72C08A149B04D0F74D81FD
:103AB0005E816F8178859E012F5F3F4FC601880D23
:103AC000991D0E940218880E991E89819A81AB81E6
:103AD000BC81009720E4A207B10540F4E114F10491
:103AE00029F0F70180839183A283B3838A149B0416
:103AF000C0F6AE014B5F5F4FBE01675F7F4FC601EF
:103B0000880D991D0E949A15880E991E898581300D
:103B100041F68A149B0428F64D815E816F81788579
:103B20009E012F5F3F4FC601880D991D0E9402180C
:103B3000880E991E49815A816B817C8141155105FE
:103B4000F0E46F07710508F501151105F1F0F801B2
:103B5000408351836283738318C04115510541F03E
:103B60008FEF9FEFDC01FA0180839183A283B383FF
:103B70000115110541F08FEF9FEFDC01F801808303
:103B80009183A283B383812C912CC4012996ECE00C
:103B90000C947120FC01009759F0222311F081E769
:103BA00001C080E780836183428383E090E00895D1
:103BB00080E090E00895FC01009739F080E6808372
:103BC0006183428383E090E0089580E090E008956F
:103BD000EF92FF920F931F93CF93DF93EC01009727
:103BE000C1F090E5988369834A83A90160E070E0A1
:103BF000CE0103960E94E41803967C01A80160E0C0
:103C000070E0CE018E0D9F1D0E94E4188E0D9F1D49
:103C100002C080E090E0CDB7DEB7E6E00C947720FC
:103C2000A6E0B0E0E6E1FEE10C945A20D62EBA01FF
:103C3000A9017801009709F44AC00115110509F49A
:103C400046C027E0D216B1F12D1560F0E2E0DE1695
:103C500059F1F4E0DF123BC098012D5F3F4F0E9405
:103C6000E91933C029E0D21659F1ECE0DE122FC079
:103C70001E821D8219821A821B821C828E010F5F96
:103C80001F4F9E012B5F3F4F0E94F3162D813E81F7
:103C9000F7013483238349815A816B817C81458379
:103CA00056836783708711C098012D5F3F4F0E9434
:103CB00002180BC098012D5F3F4F0E94E61705C008
:103CC00098012D5F3F4F0E94C418009771F4F1E0F6
:103CD000FD1548F426E0D21631F0E114F10419F094
:103CE00080E1F701828380E090E02696E7E00C9483
:103CF0007620A5E0B0E0EFE7FEE10C9457206C01E0
:103D00007A011D8219821A821B821C82009791F10E
:103D10004115510579F1FC01808183FD2BC0FA0129
:103D20001082AE014F5F5F4FBE016B5F7F4FC601D8
:103D30000E949A155C010097A1F06D81F7016283E2
:103D400029813A814B815C818701C6018A0D9B1DC7
:103D50000E94101EF7012281203131F08A0D9B1D37
:103D600005C080E090E002C08FEF9FEFF70113AA3B
:103D700012AA02C080E090E02596EAE00C9473203D
:103D8000892B29F062506B3010F4C901089580E04E
:103D900090E00895A5E0B0E0E0EDFEE10C945B203A
:103DA0008C011D8219821A821B821C82009719F4D1
:103DB00080E090E01CC0FC01808183FDF9CFAE0162
:103DC0004F5F5F4FBE016B5F7F4FC8010E949A1526
:103DD0007C01009769F329813A814B815C816D8177
:103DE000C8018E0D9F1D0E94C01E8E0D9F1D259621
:103DF000E6E00C947720643871058105910509F49B
:103E000047C0C0F46632710581059105E1F130F4D7
:103E1000623071058105910579F157C065337105EF
:103E20008105910509F440C066367105810591054B
:103E3000D9F14BC0643D710581059105B1F058F48D
:103E4000683971058105910591F1633D7105810521
:103E5000910539F13AC0663D71058105910529F05A
:103E60006A3D71058105910581F5423040F142308E
:103E700061F584E090E00895493038F5E42FF0E0F2
:103E8000E759FE4F0BC04130E9F04330C1F01DC08F
:103E90004430D8F4E42FF0E0EB59FE4F808190E0FD
:103EA0000895423078F011C0442361F00EC04250B2
:103EB000433058F4E42FF0E0EE59FE4FEFCF82E0AC
:103EC00090E008958CE090E0089580E190E00895FE
:103ED000A5E0B0E0EEE6FFE10C9457205C0169013B
:103EE0007A011D8219821A821B821C82009719F4A2
:103EF00080E090E026C0FC01808183FFF9CFAE0115
:103F00004F5F5F4FBE016B5F7F4FC5010E949A15E7
:103F10008C01009769F34D81C701B6010E94FB1E19
:103F2000803158F429813A814B815C81682FC50129
:103F3000800F911F0E94C01E02C089819A81800F4C
:103F4000911F2596EAE00C947320A5E0B0E0EBEA1F
:103F5000FFE10C9451206C015B0129013A011D82A3
:103F600019821A821B821C82FC0180818770863034
:103F700009F04FC0AE014F5F5F4FBE016B5F7F4FD7
:103F8000C6010E949A157C018D809924939400E0CB
:103F900010E0C6018E0D9F1DFC012081322F37706D
:103FA000363069F4AE014F5F5F4FBE016B5F7F4FEC
:103FB0000E949A152D8128111DC093941BC0373083
:103FC00069F4AE014F5F5F4FBE016B5F7F4F0E9490
:103FD0009A152D8128110EC09A940CC0B5016E1946
:103FE0007F0923FF05C0A30192010E94681F02C040
:103FF0000E94CA1EE80EF91E992029F0181619060B
:104000005CF4080F191FAE14BF0430F09110C1CF3B
:1040100005C000E010E002C00FEF1FEFC8012596B9
:10402000E0E10C946D2097FB072E16F4009407D066
:1040300077FD09D00E94862007FC05D03EF49095BC
:1040400081959F4F0895709561957F4F0895A1E2E6
:104050001A2EAA1BBB1BFD010DC0AA1FBB1FEE1F02
:10406000FF1FA217B307E407F50720F0A21BB30B4D
:10407000E40BF50B661F771F881F991F1A9469F7C9
:1040800060957095809590959B01AC01BD01CF0125
:104090000895EE0FFF1F0590F491E02D09942F92E3
:1040A0003F924F925F926F927F928F929F92AF92C8
:1040B000BF92CF92DF92EF92FF920F931F93CF9315
:1040C000DF93CDB7DEB7CA1BDB0B0FB6F894DEBFAC
:1040D0000FBECDBF09942A88398848885F846E84D2
:1040E0007D848C849B84AA84B984C884DF80EE801C
:1040F000FD800C811B81AA81B981CE0FD11D0FB625
:10410000F894DEBF0FBECDBFED010895AA1BBB1B07
:1041100051E107C0AA1FBB1FA617B70710F0A61BC7
:10412000B70B881F991F5A95A9F780959095BC01E8
:08413000CD010895F894FFCFC2
:10413800802500004D79204465766963650000009C
:104148000000000000000000A1F7030041562D0008
:104158000042562D3000014241436E65742053746D
:1041680061636B20617420536F75726365466F726B
:10417800676500474E552044656D6F00302E392E17
:104188003100312E300032008000CE00E001000402
:10419800C4050102040C09020C0C0C0902100202ED
:0241A800010113
:00000001FF
