:100000000C946B000C9488000C9488000C9488006D
:100010000C9488000C9488000C9488000C94880040
:100020000C9488000C9488000C9488000C94880030
:100030000C9488000C9488000C9488000C94880020
:100040000C9470220C9488000C9488000C94880006
:100050000C9488000C9488000C9488000C94880000
:100060000C9488000C948800C70DFA0DFD0D110E3C
:10007000110E000E030E110E060E090E00000000F8
:10008000240027002A0000000000250028002B0083
:1000900000000000230026002900040404040404D6
:1000A0000404020202020202030303030303010227
:1000B00004081020408001020408102001020408F6
:1000C00010200000000700020100000304060000E9
:1000D00000000000000011241FBECFEFD8E0DEBFFB
:1000E000CDBF12E0A0E0B1E0ECE3FCE402C005907B
:1000F0000D92AC31B107D9F723E0ACE1B2E001C019
:100100001D92AD3DB207E1F70E94B9000C941C2688
:100110000C9400000E94F91D0E94FC1D0E94F91D14
:100120006EE271E00E94141E0E94F91D6AE271E005
:100130000E941B1E0E94F91D66E271E00E94FF1DD5
:100140000E94F91D62E271E00E94061E0E94DF001B
:1001500084E191E09093DA038093D90326E031E0C3
:100160003093D8032093D7039093DC038093DB0371
:100170000895CF93DF93CDB7DEB762970FB6F894AB
:10018000DEBF0FBECDBF0E9411230E948A0080E017
:1001900090E00E946B0D20E030E042E850E06CE11E
:1001A00072E0CE0101960E949A0B0097A1F3AC0178
:1001B0006CE172E0CE0101960E947A0EECCF1092B3
:1001C000C50087E68093C400E0ECF0E080818D7F7D
:1001D000808386E08093C20088E18093C100089507
:1001E000CF93C82F8A3019F48DE00E94F0008091DF
:1001F000C00085FFFCCFC093C600CF9108958091C9
:10020000C00087FFFCCF8091C600089521E08C30AC
:10021000910531F08232910519F00F9709F020E035
:10022000822F08958F929F92AF92BF92CF92DF92CA
:10023000EF92FF920F931F93CF93DF93EC015B013B
:100240006A014901888183FB882780F9FA0180834C
:10025000888182FB882780F98183888186958170D7
:10026000828389810E946D11F60194838383898141
:100270000E949611F601968385838A818783808107
:10028000882339F08B8180878C81818725E030E05D
:1002900002C023E030E0C9010196FE01E20FF31F26
:1002A0002081F4012083C80FD91FF801D183C083B6
:1002B000A81AB90AF701B182A082DF91CF911F91EC
:1002C0000F91FF90EF90DF90CF90BF90AF909F90F5
:1002D0008F900895AF92BF92CF92DF92EF92FF92EC
:1002E0000F931F93CF93DF93CDB7DEB72F970FB642
:1002F000F894DEBF0FBECDBF5C01FB01BA01CE0199
:1003000001966C018AE0D6011D928A95E9F71F8655
:100310001E861D861C861B863097D1F18081807FCA
:1003200019F0803131F134C0CE010B967C018E0181
:10033000035F1F4F9E01215F3F4FA601CF010E9427
:1003400012012F856B857C858D859E852C3029F447
:100350009601A5010E945B021BC02F3029F4960173
:10036000A5010E94070A14C09601A5010E94D50E9E
:100370000FC021812F87CF0102969E878D87625003
:1003800071097C876B87283019F4A5010E94B9098F
:100390002F960FB6F894DEBF0FBECDBFDF91CF9181
:1003A0001F910F91FF90EF90DF90CF90BF90AF9093
:1003B00008956F927F928F929F92AF92BF92CF9249
:1003C000DF92EF92FF920F931F93CF93DF933C0145
:1003D000EB015A0149018881998185309105C1F16C
:1003E0008830910521F0029709F04AC019C06A814E
:1003F0007B818C819D810E941603882309F44AC069
:10040000CA84DB84EC84FD840E811F8128853985B4
:100410004A815B816C817D81C3010E94A2033CC043
:100420006A817B818C819D810E944B06882391F19A
:10043000CA84DB84EC84FD840E811F812885398584
:100440004A815B816C817D81C3010E945B0624C06F
:100450006A817B818C819D810E94C7078823D1F0AE
:10046000CA84DB84EC84FD840E811F812885398554
:100470004A815B816C817D81C3010E94E5070CC0CC
:1004800081E090E0FA01918380838FE190E0F901AF
:10049000918380838FEF9FEFDF91CF911F910F9119
:1004A000FF90EF90DF90CF90BF90AF909F908F9094
:1004B0007F906F9008956F927F928F929F92AF92EC
:1004C000BF92CF92DF92EF92FF920F931F93CF9341
:1004D000DF93CDB7DEB7E6970FB6F894DEBF0FBE59
:1004E000CDBF8C014B013A01790181E090E09EABD8
:1004F0008DAB8FE190E09CAB8BABCE0147960E9419
:10050000A60C40E050E060E0CE0189960E941310F6
:100510009E01275D3F4FAE01495E5F4FB3018EE202
:1005200093E00E941F0F5C01F70180819501225D1D
:100530003C4F6901882319F021E044E03EC0AE0140
:100540004F5F5F4FB401C8010E94411897FF03C07D
:1005500021E040E031C0AE014F5F5F4FF70167819E
:10056000C6010E940C198C01C501800F911F9E01CC
:100570002D5C3F4FAE014B5C5F4FBE016F5F7F4F05
:10058000825D9C4F0E94D9014C0197FD0FC0C501AF
:10059000880D991D800F911F825D9C4F0E945C19F0
:1005A0009801280D391D280F391F18C08E3FFFEF05
:1005B0009F0741F421E044E0F7016781C6010E94F2
:1005C000401B0BC00BA91CA92DA93EA94CE050E073
:1005D000F7016781C6010E945E1B9C012A0D3B1D2D
:1005E0004EE253E0BE01675D7F4FC3010E94F70AF0
:1005F000E6960FB6F894DEBF0FBECDBFDF91CF9168
:100600001F910F91FF90EF90DF90CF90BF90AF9030
:100610009F908F907F906F900895609149017091A5
:100620004A0180914B0190914C0108950F931F93C3
:100630000091490110914A0120914B0130914C01E8
:10064000061717072807390749F021E06F3F7F4F4A
:100650008F43910509F020E0822F01C081E0817075
:100660001F910F91089584E091E00895CF93DF9357
:100670000E945406EC010E94D0078C0F9D1F01962A
:10068000DF91CF910895CF92DF92EF92FF920F9377
:100690001F93CF93DF938A01E901613071058105D2
:1006A000910591F488E090E0FA0191838083809134
:1006B000490190914A01A0914B01B0914C0188836E
:1006C0009983AA83BB831CC06B017C01F2E0CF1A23
:1006D000D108E108F1080E945406A0E0B0E0C81675
:1006E000D906EA06FB0670F482E090E0F8019183F7
:1006F0008083C6010E945706688379838A839B831F
:1007000081E017C0C81AD90AEA0AFB0A0E94D0077A
:10071000A0E0B0E0C816D906EA06FB0648F485E07A
:1007200090E0F80191838083C6010E94D307E4CF53
:1007300080E0DF91CF911F910F91FF90EF90DF90BC
:10074000CF9008952F923F924F925F926F927F9237
:100750008F929F92AF92BF92CF92DF92EF92FF92D1
:100760000F931F93CF93DF93CDB7DEB7C757D10950
:100770000FB6F894DEBF0FBECDBF3C01E8961FAEAA
:100780001EAEE897E6961CAE1DAE1EAE1FAEE697F7
:100790000D3411052105310509F4A0C008F045C04C
:1007A0000E3311052105310509F46AC108F50C3035
:1007B00011052105310509F4A5C058F40B301105C8
:1007C0002105310509F073C140E65AEE60E070E0A2
:1007D00067C10E3111052105310509F470C10C32D4
:1007E00011052105310509F062C16DE771E07FC097
:1007F000093411052105310509F44FC148F40634C7
:1008000011052105310509F052C164E771E06FC09F
:100810000B3411052105310509F453C00C341105C1
:100820002105310509F4B9C042C10B361105210576
:10083000310509F42AC118F50036110521053105E5
:1008400009F47FC058F40F3411052105310509F072
:100850002EC148E050E060E070E01BC10136110598
:100860002105310509F456C002361105210531056F
:1008700009F01DC141E050E060E070E011C10937AE
:1008800011052105310589F180F400371105210595
:10089000310539F1083711052105310509F007C186
:1008A00044E051E060E070E0FBC00B381105210529
:1008B000310559F10B3911052105310509F4EDC058
:1008C000F6C02091490130914A0140914B0150916D
:1008D0004C0168E070E00E942A14E5C065E371E015
:1008E00006C040E050E0BA01D4C068E571E0CE0136
:1008F00001960E94A317BE016F5F7F4FC3010E9444
:10090000AA14D1C063E871E0F2CF4EE050E060E09D
:1009100070E0C6C0CE018E599F4F0E941A1700E0AA
:1009200010E0C8010E940601482F602FCE018E59A9
:100930009F4F0E9428170F5F1F4F0932110589F73B
:1009400025C0CE018E599F4F0E941A1710E040E03B
:10095000612FCE018E599F4F0E9428171F5F1733BA
:10096000B1F741E068E0CE018E599F4F0E942817F1
:1009700041E062E0CE018E599F4F0E94281741E06E
:1009800065E0CE018E599F4F0E942817BE016E5917
:100990007F4FC3010E946F1386C00E9436031C0163
:1009A000412C512CC114D104E104F10431F4B20101
:1009B000A101C3010E94AF1559C08FEFC816D80618
:1009C000E806F806D1F5C12CD12C7601C39400E0DD
:1009D00010E02C143D044E045F0408F483C09E0113
:1009E0002E583F4FAE014A585F4FC701B6010E94D3
:1009F0004303E6962CAD3DAD4EAD5FADE697E89670
:100A00006EAD7FADE897C301800F911F0E942A143D
:100A1000080F191F800F911F8436910544F086E35B
:100A200090E0F401918380830EEF1FEF5BC0FFEF36
:100A3000CF1ADF0AEF0AFF0ACCCF9E012E583F4F94
:100A4000AE014A585F4FC701B6010E944303882395
:100A500079F0E6962CAD3DAD4EAD5FADE697E896EC
:100A60006EAD7FADE897C3010E942A148C013AC095
:100A700082E090E0F501918380838AE290E02DC0CE
:100A800044E650E060E070E00BC043E050E060E01E
:100A900070E0C3010E94F41506C040E050E0BA01C6
:100AA000C3010E94AF158C0197FF0BC01BC082E0F1
:100AB00090E0F5019183808380E290E00EC000E039
:100AC00010E0CF20CE20CD20C09461F082E090E0F5
:100AD000F5019183808382E390E0F4019183808328
:100AE0000FEF1FEFC801C958DF4F0FB6F894DEBFF4
:100AF0000FBECDBFDF91CF911F910F91FF90EF906F
:100B0000DF90CF90BF90AF909F908F907F906F902D
:100B10005F904F903F902F900895BF92CF92DF92B9
:100B2000EF92FF920F931F93CF93DF93CDB7DEB772
:100B3000C656D1090FB6F894DEBF0FBECDBF8C01EB
:100B40006B017A01FC0162817381848195810E942D
:100B50001603B82E811108C081E090E0F601918360
:100B600080838FE190E06EC0F801EE58FF4F608106
:100B70007181AE014F5F5F4FC8010E960E94011C4C
:100B8000F80197FF0AC0EB58FF4F82E090E0918395
:100B90008083329685E290E069C046815781608506
:100BA00071854B3451056105710531F04D345105A6
:100BB0006105710519F152C08B818C3011F58C8162
:100BC0009D81089799F40E811F812885398501152B
:100BD0001105F0E42F07310548F400934901109303
:100BE0004A0120934B0130934C0143C082E090E0D6
:100BF000F6019183808385E290E037C08B81873056
:100C000041F082E090E0F6019183808389E090E0FA
:100C10002CC0CE0104960E94F117811117C0AE01BD
:100C20004C5F5F4F64E170E085E391E00E94B6178E
:100C3000B82E81111EC082E090E0F601918380837E
:100C400084E190E0F7019183808313C082E090E01B
:100C5000F6019183808389E290E007C082E090E012
:100C6000F6019183808388E290E0F701918380838D
:100C7000B12C8B2DCA59DF4F0FB6F894DEBF0FBED3
:100C8000CDBFDF91CF911F910F91FF90EF90DF903B
:100C9000CF90BF90089521E06430710581059105E2
:100CA00008F020E0822F089584E090E00895BC01D0
:100CB00080E090E008956F927F928F929F92AF9222
:100CC000BF92CF92DF92EF92FF920F931F93CF9339
:100CD000DF93CDB7DEB7C157D1090FB6F894DEBFA9
:100CE0000FBECDBF3C01852F572F0F3411052105B5
:100CF000310509F44FC0A0F40B341105210531056D
:100D000081F10D34110521053105A1F104321105E0
:100D10002105310509F07FC040E050E0BA0177C0FD
:100D20000535110521053105D1F158F401351105BD
:100D30002105310509F06FC060E0C3010E94241352
:100D400072C00F36110521053105C9F105371105AE
:100D50002105310509F05FC042E650E060E070E037
:100D600056C0242F382F462F62E070E0C3010E9446
:100D70002A1459C0405D409350016DE471E0CE01EA
:100D800001960E94A317BE016F5F7F4FC3010E94AF
:100D9000AA1449C042E050E060E070E038C0E42F9F
:100DA000F82FEE0FFF1FEE0FFF1FE953FC4F40819E
:100DB000518162817381C3010E94551634C0CE01F6
:100DC0008E599F4F0E941A1740E060E0CE018E5965
:100DD0009F4F0E94281740E061E0CE018E599F4F3F
:100DE0000E94281740E062E0CE018E599F4F0E947A
:100DF000281740E063E0CE018E599F4F0E942817CC
:100E0000BE016E597F4FC3010E946F130CC0C30116
:100E10000E94F41508C082E090E0F5019183808380
:100E200080E290E00EC097FD11C0CF20CE20CD20F3
:100E3000C09461F082E090E0F5019183808382E3C9
:100E400090E0F401918380838FEF9FEFCF58DF4FC5
:100E50000FB6F894DEBF0FBECDBFDF91CF911F91CB
:100E60000F91FF90EF90DF90CF90BF90AF909F9049
:100E70008F907F906F900895AF92BF92CF92DF9244
:100E8000EF92FF920F931F93CF93DF93CDB7DEB70F
:100E9000C656D1090FB6F894DEBF0FBECDBF7C0198
:100EA0006B015A01FC0182819381A481B581049771
:100EB000A105B10560F081E090E0FB0191838083A2
:100EC0008FE190E0D5018D939C9380E04EC0F701B7
:100ED000EE58FF4F60817181AE014F5F5F4FC701D8
:100EE0000E960E94011C97FF0DC0F701EB58FF4FB3
:100EF00082E090E091838083329685E290E0918356
:100F00008083E3CFD70116960D911D912D913C91D1
:100F100019970535110521053105F9F48B818430C8
:100F2000A1F41296ED91FC911397EE0FFF1FEE0FB7
:100F3000FF1FE953FC4F8C819D81AE81BF8180836F
:100F40009183A283B38381E010C082E090E0F60138
:100F50009183808389E090E0B5CF82E090E0F60154
:100F60009183808388E290E0ADCFCA59DF4F0FB6FE
:100F7000F894DEBF0FBECDBFDF91CF911F910F91CF
:100F8000FF90EF90DF90CF90BF90AF90089521E059
:100F9000643071058105910508F020E0822F0895E5
:100FA00084E090E00895BC0180E090E00895643012
:100FB00071058105910530F4605D6093550182E50E
:100FC00091E0089580E090E008956F927F928F9273
:100FD0009F92AF92BF92CF92DF92EF92FF920F93C8
:100FE0001F93CF93DF93CDB7DEB7C157D1090FB6AB
:100FF000F894DEBF0FBECDBF3C010F3411052105B3
:10100000310509F470C098F40B3411052105310540
:1010100009F452C00D3411052105310509F453C0FE
:10102000043211052105310509F07BC076C0043575
:1010300011052105310509F470C050F40135110581
:101040002105310509F06DC060E00E94241371C0D4
:10105000053511052105310509F44AC00F36110582
:101060002105310509F05DC0CE018E599F4F0E94C8
:101070001A1740E060E0CE018E599F4F0E9428175A
:1010800040E061E0CE018E599F4F0E94281740E05A
:1010900062E0CE018E599F4F0E94281740E063E026
:1010A000CE018E599F4F0E942817BE016E597F4F67
:1010B000C3010E946F133DC09A01AB0165E070E06F
:1010C0000E942A1436C0CB01BA010E94D707BC0186
:1010D000CE0101960E94A317BE016F5F7F4FC3012F
:1010E0000E94AA1426C045E050E060E070E011C004
:1010F000443051056105710540F4FA01EE0FFF1F00
:10110000E256FD4F4081518102C040E050E060E076
:1011100070E0C3010E94F4150CC040E050E0BA0139
:10112000F8CF82E090E0F5019183808380E290E047
:101130000EC097FD11C0CF20CE20CD20C09461F00D
:1011400082E090E0F5019183808382E390E0F401F6
:10115000918380838FEF9FEFCF58DF4F0FB6F894C6
:10116000DEBF0FBECDBFDF91CF911F910F91FF90DA
:10117000EF90DF90CF90BF90AF909F908F907F9037
:101180006F900895AF92BF92CF92DF92EF92FF924D
:101190000F931F93CF93DF93CDB7DEB7C656D10918
:1011A0000FB6F894DEBF0FBECDBF7C016B015A01B4
:1011B000FC0182819381A481B5810497A105B105C9
:1011C00060F081E090E0FB01918380838FE190E00B
:1011D000F5019183808380E05BC0F701EE58FF4FFB
:1011E00060817181AE014F5F5F4FC7010E960E9413
:1011F000011C97FF0BC0F701EB58FF4F82E090E016
:1012000091838083329685E290E0E3CFF701868177
:101210009781A085B18585359105A105B10581F539
:101220008B81893029F50C811D812E813F8102300F
:10123000110521053105A0F482819381A481B58136
:1012400084309105A105B10510F084E090E0FC0127
:10125000EE0FFF1FE256FD4F1183008381E018C09F
:1012600082E090E0F6019183808385E290E0B0CF48
:1012700082E090E0F6019183808389E090E0A8CF3E
:1012800082E090E0F6019183808388E290E0A0CF35
:10129000CA59DF4F0FB6F894DEBF0FBECDBFDF9146
:1012A000CF911F910F91FF90EF90DF90CF90BF9063
:1012B000AF900895AF92BF92CF92DF92EF92FF92DC
:1012C0000F931F93CF93DF93CDB7DEB7AE970FB6D3
:1012D000F894DEBF0FBECDBF6C0182E1FB01DE01E1
:1012E000539601900D928A95E1F7CE0101960E94E6
:1012F000A60C40E050E060E0CE0185960E941310FD
:101300009E012B5D3F4FAE014F5F5F4FBE016D5E93
:101310007F4FC6010E941F0F5C010E9433037C01B6
:101320000E940D03AB01BC0103E010E024E630E0B5
:10133000C6018A0D9B1D0E94F8179501280F391FC1
:10134000A601BE016B5D7F4FCE0143960E94F70A56
:10135000AE960FB6F894DEBF0FBECDBFDF91CF9132
:101360001F910F91FF90EF90DF90CF90BF90AF90C3
:101370000895CF92DF92EF92FF920F931F93CF9336
:10138000DF93CDB7DEB728970FB6F894DEBF0FBE58
:10139000CDBF8A011D821E821F82188619821A8281
:1013A0001B821C829E012F5F3F4FAE014B5F5F4F40
:1013B0000E94871A009731F4B8018EE293E00E94F0
:1013C0005A0916C00196A1F00E940D03CD80DE805F
:1013D000EF80F8846C157D058E059F054CF0C98063
:1013E000DA80EB80FC80C616D706E806F90624F7FB
:1013F00028960FB6F894DEBF0FBECDBFDF91CF9118
:101400001F910F91FF90EF90DF90CF9008958F92F2
:101410009F92AF92BF92CF92DF92EF92FF920F9383
:101420001F93CF93DF93CDB7DEB7A0970FB6F89495
:10143000DEBF0FBECDBF5A01790121E030E038A3F5
:101440002F8F2FE130E03E8F2D8F46EA52E00E9431
:1014500064198C01CE0101960E94A60C40E050E078
:1014600060E0CE0143960E9413109E012D5E3F4F17
:10147000AE014F5F5F4FB5018EE293E00E941F0FF8
:101480004C01825D9C4F6C01101611062CF021E07E
:1014900040E0F701678108C0F7018081882339F0B7
:1014A00021E044E06781C6010E94401B40C080915A
:1014B000A6029091A70285309105D9F08830910558
:1014C00069F0029749F5AE01435E5F4FBE01615E70
:1014D0007F4F86EA92E00E943C0715C0AE01435E52
:1014E0005F4FBE01615E7F4F86EA92E00E948D05EC
:1014F0000AC0AE01435E5F4FBE01615E7F4F86EA68
:1015000092E00E94C208882339F04FE0F70167811A
:10151000C6010E9477160BC00D8D1E8D2F8D38A130
:101520004FE050E0F7016781C6010E945E1B940105
:10153000280F391F4EE253E0BE016D5E7F4FC5019B
:101540000E94F70AA0960FB6F894DEBF0FBECDBF7B
:10155000DF91CF911F910F91FF90EF90DF90CF908F
:10156000BF90AF909F908F900895FC016081418162
:10157000228170E0660F771F88E1682750E0440FF2
:10158000551F80E14827640F751F30E0220F331F7D
:1015900088E02827620F731F8381680F711D8827D9
:1015A00077FD8095982F0895809357010895809135
:1015B0005701089581E090915701943008F080E040
:1015C0000895E3E2F3E0DC012D91CD012193B3E036
:1015D000E732FB07C1F70895EFE1F3E0DC012D915D
:1015E000CD012193B3E0E332FB07C1F708958F9259
:1015F0009F92AF92BF92CF92DF92EF92FF920F93A2
:101600001F93CF93DF93CDB7DEB7C658D1090FB67E
:10161000F894DEBF0FBECDBFFC015A016901CE01B7
:1016200001967C0182E8D7011D928A95E9F7CD5792
:10163000DF4F188219821A821B82C358D04081E87A
:101640008983808591858F3FBFEF9B0729F0892B88
:1016500029F18285811122C080911F03CD57DF4F70
:101660008883C358D04080912003CC57DF4F8883B4
:10167000C458D04080912103CB57DF4F8883C55891
:10168000D04080912203CA57DF4F8883C658D0408C
:1016900000912703109128038BE019C080818823D3
:1016A000D9F2863089F5309779F001811281238152
:1016B0003481CD57DF4F088319832A833B83C35876
:1016C000D0400581168102C000E010E08AE08A83E4
:1016D000B6016C5F7F4FCE0103960E947F16029683
:1016E0004C01A601B501C701880D991D0E948923EF
:1016F000A4014C0D5D1D9E012D573F4FB7018091F8
:1017000057010E94391E02C08FEF9FEFCA57DF4F6B
:101710000FB6F894DEBF0FBECDBFDF91CF911F9102
:101720000F91FF90EF90DF90CF90BF90AF909F9080
:101730008F9008954F925F926F927F92AF92BF9277
:10174000CF92DF92EF92FF920F931F93CF93DF938D
:10175000CDB7DEB729970FB6F894DEBF0FBECDBF69
:101760006C017B015A0118861F8219821A821B8222
:101770001C821E821D826091570169870E94F91D9B
:1017800069850E94291E892B19F480E090E0C9C068
:10179000F60181819281A381B48189839A83AB838D
:1017A000BC83858196819E838D838E010B5F1F4F45
:1017B0009E012F5F3F4FA501B701809157010E9405
:1017C000401E181619060CF7F70120812138E9F69A
:1017D0009C01A701B801CE0101960E94990D892BA9
:1017E000A1F60E94750E9C012A5031092230310564
:1017F00008F045C0CE0101960E94B50A2B013C01BC
:1018000083E293E00E94B50A4616570668067906F9
:1018100051F42D813E818091270390912803281750
:10182000390709F47AC086E0F601808389819A81BC
:10183000AB81BC8181839283A383B4838D819E819C
:1018400096838583BE01695F7F4FC70102960E9420
:1018500085168F81988504978A159B0508F05DC0D1
:1018600098878F83D7011496F7019F012E193F099E
:101870002817390708F053C02D912193F6CF04970C
:1018800009F04DC0F70184819581A681B7818983D4
:101890009A83AB83BC83008511851E830D83CE01A3
:1018A00001960E94B50A2B013C0183E293E00E945D
:1018B000B50A461657066806790639F4809127035B
:1018C000909128030817190741F186E0F6018083FB
:1018D00089819A81AB81BC8181839283A383B48304
:1018E00016830583BE01695F7F4FC70102960E9480
:1018F00085168F8198850A978A159B0570F49887BD
:101900008F83D7011A96F7019F012E193F092817D7
:10191000390728F42D912193F7CF18861F828F81E4
:10192000988529960FB6F894DEBF0FBECDBFDF9124
:10193000CF911F910F91FF90EF90DF90CF90BF90CC
:10194000AF907F906F905F904F900895FC0100974B
:1019500011F186E08083409123035091240360912C
:10196000250370912603418352836383748380919E
:10197000270390912803968385831186108612860B
:1019800080E090E0DF01A80FB91F1B961C92019622
:1019900087309105B9F708950F931F93CF93DF9385
:1019A000CDB7DEB72C970FB6F894DEBF0FBECDBF14
:1019B000182F092F19861A861B861C861D821E82E7
:1019C0001F82188619821A821B821C820E94F91DAE
:1019D000BE01675F7F4F0E94221ECE0109960E94C2
:1019E000E10A80912903882359F10F931F9387E817
:1019F00091E09F938F938091DC038F938091DB0321
:101A00008F930E9492238C851F928F938B851F92B8
:101A10008F938A851F928F9389851F928F9386E972
:101A200091E09F938F938091DC038F938091DB03F0
:101A30008F930E9492230FB6F894DEBF0FBECDBFE6
:101A40000E94F91DBE016F5F7F4F0E940D1E8E0127
:101A50000F5F1F4F9E01275F3F4FFE013596AF017D
:101A6000CF01D8016D918D01D9017D919D016095C6
:101A7000672B619304171507A1F70E94EC0A809168
:101A800029038823E9F088851F928F938F811F9205
:101A90008F938E811F928F938D811F928F938FEAE8
:101AA00091E09F938F938091DC038F938091DB0370
:101AB0008F930E9492230FB6F894DEBF0FBECDBF66
:101AC0002C960FB6F894DEBF0FBECDBFDF91CF913D
:101AD0001F910F910895CF93DF93009711F482ED3A
:101AE00091E00E94CC0CC0E00E94F91D6C2F0E9476
:101AF0002C1ED82F0E94F71DD81311C00E94F51D6F
:101B000020E040EC5AEB682F8C2F0E94331E8C2F64
:101B10000E94361E8C2F0E94D40A81E007C0CF5F3E
:101B2000C43011F784E00E94D40A80E0DF91CF91A5
:101B30000895AF92BF92CF92DF92EF92FF920F93F0
:101B40001F93CF93DF93CDB7DEB7C458D1090FB63B
:101B5000F894DEBF0FBECDBF6C015B01C901CD574C
:101B6000DF4F19821882C358D040FA010181202F1B
:101B700030E030932B0320932A0310E00A30110544
:101B800008F04FC0F801EC5CFF4F0C944C23069713
:101B900008F447C0BE016D577F4FCA0104960E94EA
:101BA0008516CD57DF4F8881C358D040CC57DF4FC3
:101BB0009881C458D04080932C0390932D039F9319
:101BC0008F9387ED91E09F938F938091DC038F93A8
:101BD0008091DB038F930E949223CD57DF4F1982B0
:101BE0001882C358D0400F900F900F900F900F9015
:101BF0000F9017C080E190E00EC080E290E00BC033
:101C000080E390E008C080E490E005C080E590E0CB
:101C100002C080E690E0CD57DF4F99838883C35898
:101C2000D040CD57DF4F08811981C358D0400115EE
:101C3000110509F442C0CE0101967C0182E8F7014A
:101C400011928A95E9F781E8898366E070E0CE0118
:101C500003960E947F16B801CE0105960E947F165A
:101C60000E94DA0A81110BC0F501008111810E94E6
:101C7000D70A960146E050E0B7010E94391ECC57C2
:101C8000DF4F8881C458D0408F93CD57DF4F888174
:101C9000C358D0408F938DEE91E09F938F938091A6
:101CA000DC038F938091DB038F930E9492230F902C
:101CB0000F900F900F900F900F90CD57DF4F8881AE
:101CC0009981C358D040CC57DF4F0FB6F894DEBF90
:101CD0000FBECDBFDF91CF911F910F91FF90EF907D
:101CE000DF90CF90BF90AF90089580912A0390919C
:101CF0002B030895CF92DF92EF92FF920F931F93E1
:101D0000CF93DF93CDB7DEB76C970FB6F894DEBFF5
:101D10000FBECDBF7C018B016A01BE016F5F7F4F9B
:101D200082E1FB0111928A95E9F79E012D5E3F4FFA
:101D30008AE0F90111928A95E9F7F80180818130F2
:101D400029F5A701C8010E9425109C018D898111E8
:101D50001DC012161306D4F4C216D306B8F0898536
:101D60009A85AC01415051094E3F5F4F78F0B80160
:101D7000620F731F019621F4FB018081807F31F097
:101D8000A601421B530BC7010E946A016C960FB655
:101D9000F894DEBF0FBECDBFDF91CF911F910F91A1
:101DA000FF90EF90DF90CF900895CF92DF92EF9267
:101DB000FF920F931F93CF93DF93CDB7DEB76C974E
:101DC0000FB6F894DEBF0FBECDBF8A016901CE0108
:101DD00001960E94A60C40E050E060E0CE014396E0
:101DE0000E9413109E012D5E3F4FAE014F5F5F4F6B
:101DF000B8018EE293E00E941F0F7C0149E0F601DA
:101E00006781825D9C4F0E94511B9701280F391FEB
:101E10004EE253E0BE016D5E7F4FC8010E94F70A9B
:101E20006C960FB6F894DEBF0FBECDBFDF91CF9199
:101E30001F910F91FF90EF90DF90CF900895AF9298
:101E4000BF92CF92DF92EF92FF920F931F93CF93A7
:101E5000DF93EC017B015A016901009709F4D5C0B9
:101E60002115310509F4D1C0D9018C9188831982DB
:101E700012968C91882311F080E88983E114F10493
:101E800041F0F70180859185892B19F08981806265
:101E90008983A114B10471F0D50118968D919C919C
:101EA0001997892B39F01A968C91882319F089811A
:101EB00088608983F6018181882319F08981846093
:101EC0008983D60113969C9193708981892B89838C
:101ED000E114F10459F1F70160857185611571050F
:101EE00029F1CE0102960E947F169C012D5F3F4F83
:101EF000D7011A964C911A97FE01E80FF91F4283F9
:101F00001A968C918823A9F0C901482F421B8C0195
:101F1000F7015285451770F4F701E40FF11D438571
:101F2000FE01E80FF91F40830196EFCF02E010E0B9
:101F300001C08901A114B104A1F1D50118966D91D8
:101F40007C9119976115710561F11A968C9188231E
:101F500041F1CE01800F911F0E947F16080F191FBB
:101F600098012F5F3F4FF5018285FE01E00FF11FC1
:101F70008083D5011A968C91882391F0C901482F4E
:101F8000421B8C01F5015285451758F4F501E40F09
:101F9000F11D4385FE01E80FF91F40830196EFCF45
:101FA0008901E114F10479F0D70118968D919C9183
:101FB0001997892B41F0F6018185FE01E00FF11F91
:101FC00080830F5F1F4FD60112968C911297882342
:101FD000F1F0FE01E00FF11F15968C9115978083AB
:101FE0000F5F1F4F15968D919C9116978038910524
:101FF00070F017966D917C911897CE01800F911F0C
:102000000E947F16080F191F02C000E010E0C801EF
:10201000DF91CF911F910F91FF90EF90DF90CF90C4
:10202000BF90AF900895FC01009771F0618381E04B
:102030008083128280E091E09683858310861782E8
:10204000548343838FEF818708958F929F92AF923D
:10205000BF92CF92DF92EF92FF920F931F93CF9395
:10206000DF9300D000D0CDB7DEB77C014B015A0121
:1020700069011C821B821A821982009709F403C12C
:102080002115310509F4FFC0DC018C91F901808331
:1020900011968C911197881F8827881F828311962B
:1020A0008C91119782FB882780F9818311968C91FE
:1020B0001197837090E09483838311968C9185FFB0
:1020C0003BC0BE016F5F7F4FC70102960E9485161D
:1020D0008C010D5F1F4FF701E80FF91F428181143A
:1020E000910449F029813A81D40119963C932E93A9
:1020F00018971A964C934423A1F1483018F08FEFAB
:102100009FEFC5C020E030E0DF01A20FB31F1396A0
:102110005C918114910429F0D401A20FB31F1B9686
:102120005C932F5F3F4F241778F38C010C5F1F4F98
:102130004150040F111D15C06115710519F402E01D
:1021400010E00FC0FB0111861086128680E090E03F
:10215000F401E80FF91F1386019687309105C1F746
:10216000EECFD70111968C9183FF3CC0BE016D5F0D
:102170007F4FC701800F911F0E948516800F911F0E
:102180008C010F5F1F4FF701E80FF91F4081A11469
:10219000B10449F02B813C81D50119963C932E93D3
:1021A00018971A964C934423B1F1483008F0A7CF02
:1021B00020E030E0DF01A20FB31F11965C91A11463
:1021C000B10429F0D501A20FB31F1B965C932F5FBA
:1021D0003F4F241778F38C010E5F1F4F4150040FBF
:1021E000111D19C0A114B104B1F0F50180859185CC
:1021F000019629F0D50119961C921E921897F501A7
:10220000128680E090E0F501E80FF91F1386019631
:1022100087309105C1F789819A81892B51F0F701A7
:10222000E00FF11F8081D60119968C930F5F1F4F2D
:1022300002C0F6011186D60112968C918823D1F046
:102240005801BFEFAB1ABB0AF701E00FF11F808105
:1022500090E0F6019683858380389105B8F0B60149
:10226000695F7F4FC7018A0D9B1D0E9485168A0DED
:102270009B1D0DC080E091E0D60116969C938E9335
:102280001597C80104C080E090E001C0C5010F901F
:102290000F900F900F90DF91CF911F910F91FF90B2
:1022A000EF90DF90CF90BF90AF909F908F90089568
:1022B000982F80FD02C080E001C080E891FD80641D
:1022C00092FD806293FD806194FD886095FD84603D
:1022D00096FD826097FD81600895807F8034B9F01B
:1022E00038F4803271F0803379F0803139F41BC0DA
:1022F000803699F08037A1F0803561F080E090E081
:10230000089584E090E0089588E090E0089580E1E9
:1023100090E0089580E290E0089580E490E00895D0
:1023200081E490E0089582E090E008958F70863017
:1023300048F4E82FF0E0EE0FFF1FE050FE4F8081E1
:102340009181089580E090E008950F931F93CF93BB
:10235000DF93FC01411102C0108202C088E080833B
:1023600080816F3048F490E1699FB0011124682B9F
:10237000608381E090E005C0806F8083618382E0AC
:1023800090E04081053011052105310518F4042B3A
:10239000008329C045604083EC012196DF01A80F2E
:1023A000B91F0E3F11052105310518F40C93CE011C
:1023B0001AC00115110581E02807310548F48EEF98
:1023C0008C93B801CF018C0F9D1F0E947F1609C00E
:1023D0008FEF8C93B901A801CF018C0F9D1F0E9434
:1023E000C1168C0F9D1FDF91CF911F910F91089502
:1023F000FC0188E080836F3048F480E1689FB00181
:1024000011246860608381E090E005C088EF8083DC
:10241000618382E090E02081266020830895FC01A2
:1024200088E080836F3048F480E1689FB001112418
:102430006860608381E090E005C088EF80836183FD
:1024400082E090E02081276020830895FC012081B4
:10245000322F307F303F39F46115710561F0818191
:10246000FB01808308C06115710541F022952F7032
:10247000FB01208303C082E090E0089581E090E0BA
:102480000895AF92BF92CF92DF92EF92FF920F9397
:102490001F93CF93DF9300D000D0CDB7DEB76C0190
:1024A0007A010E942612F60100810770053009F0BA
:1024B00042C0E80FF91F00819C012F5F3F4F590177
:1024C0000F3F99F4BE016F5F7F4FC601820F931FCC
:1024D0000E94C9168A0D9B1DE114F10409F443C042
:1024E00049815A816B817C8113C00E3FB9F4BE01D2
:1024F0006F5F7F4FC601820F931F0E9485168A0D62
:102500009B1DE114F10479F149815A8160E070E08A
:10251000F701408351836283738325C0E114F10482
:1025200041F010E020E030E0F701008311832283C6
:102530003383C50118C0063011F0073049F4E114A7
:10254000F10489F0F70110821182128213820BC00C
:10255000E114F10441F010E020E030E0F7010083E5
:102560001183228333830F900F900F900F90DF9190
:10257000CF911F910F91FF90EF90DF90CF90BF9080
:10258000AF900895FF920F931F93CF93DF931F9205
:10259000CDB7DEB78C01F62E1982BE016F5F7F4F7B
:1025A0000E942612F801808183FF03C081E0998197
:1025B0009F1180E081700F90DF91CF911F910F915B
:1025C000FF900895FF920F931F93CF93DF931F9275
:1025D000CDB7DEB78C01F62E1982BE016F5F7F4F3B
:1025E0000E942612F80180818770863019F481E0FC
:1025F00099819F1180E081700F90DF91CF911F91A1
:102600000F91FF900895FF920F931F93CF93DF9345
:102610001F92CDB7DEB78C01F62E1982BE016F5F17
:102620007F4F0E942612F80180818770873019F44D
:1026300081E099819F1180E081700F90DF91CF91AF
:102640001F910F91FF9008950F931F93062F10E095
:1026500020E030E040E061E00E94A5111F910F9161
:102660000895CF92DF92EF92FF920F931F93CF9333
:10267000DF938C01EB01CB010E945117811105C042
:10268000F801108281E090E021C0CE010E94541731
:10269000C82ECE010E945117EC2CF12C9C2D990FC5
:1026A000990F990F981BF80191938F01D12CDC148D
:1026B00059F06D2DCE010E9460170E945811F8014B
:1026C00081938F01D394F3CFC7010196DF91CF910E
:1026D0001F910F91FF90EF90DF90CF900895EF92B0
:1026E000FF920F931F93CF93DF93EC017B01CB01FC
:1026F0000E945417082F10E020E030E00F5F1F4FBA
:102700002F4F3F4F40E068E0CE010E94A5118C01A1
:10271000B701CE01800F911F0E943113800F911FCE
:10272000DF91CF911F910F91FF90EF900895CF927D
:10273000DF92EF92FF920F931F93CF93DF9300D01E
:1027400000D0CDB7DEB76B017A0119821A821B82E5
:102750001C82BE016F5F7F4F0E94C91609811A81DA
:102760002B813C81B901A801E6E1769567955795E3
:102770004795EA95D1F75370F601518340832F7343
:102780003327F70100831183228333830F900F9047
:102790000F900F90DF91CF911F910F91FF90EF90CD
:1027A000DF90CF9008950F931F934430510561053A
:1027B000710531F4A801B9011F910F910C94971381
:1027C00080E090E01F910F9108950F931F9389016E
:1027D0009A01AB01662757FD6095762FF6E1440F0D
:1027E000551F661F771FFA95D1F72F733327402B9C
:1027F000512B622B732B1F910F910C94C116AF922A
:10280000BF92CF92DF92EF92FF920F931F93CF93DD
:10281000DF93EC015A016801790104E010E020E047
:1028200030E041E00E94A5118C01A7019601B5019D
:10283000CE01800F911F0E94E513800F911FDF9141
:10284000CF911F910F91FF90EF90DF90CF90BF90AD
:10285000AF900895EF92FF920F931F93CF93DF9362
:10286000EC0101960E94E5137C018C01222717FDE3
:102870002095322F40E06CE0CE010E94A5118E0D14
:102880009F1DDF91CF911F910F91FF90EF900895C1
:102890008F929F92AF92BF92CF92DF92EF92FF9270
:1028A0000F931F93DC014A015B01C701B6016F5F03
:1028B0007F4F8F4F9F4F1097B1F086169706A8064F
:1028C000B90688F02D93F80100E010E098010C158E
:1028D0001D052E053F0551F041914D930F5F1F4F90
:1028E0002F4F3F4FF4CF60E070E0CB011F910F916D
:1028F000FF90EF90DF90CF90BF90AF909F908F9020
:102900000895CF92DF92EF92FF920F931F93CF9390
:10291000DF93EC017B01CB010E94E8176C01C7013A
:102920000E94E1178C01C7010E94F117E12CF12CE4
:10293000282F44E650E060E070E0CE010E94481489
:10294000CB01DF91CF911F910F91FF90EF90DF901E
:10295000CF900895CF92DF92EF92FF920F931F9343
:10296000CF93DF93EC017B01CB010E94E817019626
:102970006C018C01222717FD2095322F40E067E083
:10298000CE010E94A5118C01C80ED91E84E6C8167E
:10299000D1044CF4B701CE01800F911F0E94811425
:1029A000800F911F02C080E090E0DF91CF911F91D6
:1029B0000F91FF90EF90DF90CF900895CF92DF922C
:1029C000EF92FF92FC016A017B01C9019A0121503B
:1029D0003109AF014F5F5F4F60810E946B17882301
:1029E00011F0C60102C080E090E0FF90EF90DF9010
:1029F000CF900895CF92DF92EF92FF920F931F93A3
:102A0000CF93DF9300D0CDB7DEB76A017B01890198
:102A10001A82198221153105A9F14230510561054B
:102A20007105C1F048F4413051056105710529F582
:102A3000FC01808190E015C04330510561057105AE
:102A4000C1F04430510561057105B9F4B8010E9427
:102A5000C91618C0BE016F5F7F4F0E94851689811D
:102A60009A81A0E0B0E0F80180839183A283B383D0
:102A700009C0B8010E94A01605C0F8011082118299
:102A800012821382C6010F900F90DF91CF911F9198
:102A90000F91FF90EF90DF90CF9008954F3F510539
:102AA00061057105A1F098F041155105F1E06F073E
:102AB000710518F4BA010C947F1641155105610592
:102AC00021E0720710F40C9499160C94C116FC01C5
:102AD000408381E090E00895CF92DF92EF92FF92E1
:102AE0000F931F93CF93DF93EC0169017A012F3F7E
:102AF00031054105510581F078F02115310581E05E
:102B00004807510560F021153105410581E058075E
:102B100048F403E010E008C001E010E005C002E066
:102B200010E002C004E010E0222717FD2095322FAC
:102B300041E0CE010E94A5118C01B701A601CE0192
:102B4000800F911F0E944E15800F911FDF91CF9132
:102B50001F910F91FF90EF90DF90CF900895EF922B
:102B6000FF920F931F93CF93DF93EC0101960E9486
:102B70004E157C018C01222717FD2095322F40E055
:102B800062E0CE010E94A5118E0D9F1DDF91CF91B5
:102B90001F910F91FF90EF9008950F931F93CF9384
:102BA000DF9300D000D0CDB7DEB7890119821A8239
:102BB0001B821C829E012F5F3F4F0E94FA14011559
:102BC000110549F049815A816B817C81F80140836C
:102BD0005183628373830F900F900F900F90DF915A
:102BE000CF911F910F910895EF92FF920F931F9332
:102BF000CF93DF93EC0101960E944E157C018C016E
:102C0000222717FD2095322F40E069E0CE010E9477
:102C1000A5118E0D9F1DDF91CF911F910F91FF90F8
:102C2000EF900895CF92DF92EF92FF920F931F9350
:102C3000CF93DF93EC0169017A012F3F3105410504
:102C4000510581F078F02115310581E048075105E3
:102C500060F021153105410581E0580748F403E093
:102C600010E008C001E010E005C002E010E002C082
:102C700004E010E0222717FD2095322F41E0CE011D
:102C80000E94A5118C01B701A601CE01800F911FF2
:102C90000E944E15800F911FDF91CF911F910F91D0
:102CA000FF90EF90DF90CF900895EF92FF920F93F7
:102CB0001F93CF93DF93EC01CB01BA01AE014F5FBD
:102CC0005F4F0E9412177C018C01222717FD20956F
:102CD000322F40E064E0CE010E94A5118E0D9F1DB1
:102CE000DF91CF911F910F91FF90EF900895FC011C
:102CF00080E280836183428383E090E00895FC0159
:102D00007083618382E090E008956115710571F030
:102D1000FC01208130E0322F2227FB013183208308
:102D2000FC018181282BFB013183208382E090E02C
:102D30000895FC0160835183428383E090E008950D
:102D4000DC01FB013097D1F04C9150E060E070E085
:102D5000BA015527442740835183628373831196B8
:102D60008C911197582B4083518362837383129601
:102D70008C91482B408351836283738383E090E07E
:102D80000895FC01708361835283438384E090E063
:102D90000895FC01DB01109711F1408150E060E0E3
:102DA00070E0742F6627552744274D935D936D93EC
:102DB0007C9313978181682B4D935D936D937C93E6
:102DC00013978281582B4D935D936D937C9313974A
:102DD0008381482B4D935D936D937C93139784E08F
:102DE00090E00895FC015381428131812081852F3B
:102DF000942FA32FB22FFB0180839183A283B383EF
:102E000084E090E00895443051056105710519F49E
:102E1000B9010C94F216F901108211821282138208
:102E2000CA010895FA01908381837283638384E0E9
:102E300090E00895FC01108221E030E0FC01E20FF7
:102E4000F31F10822F5F3F4F20313105B9F70895EE
:102E5000FC01562F5695569556955F3008F5862FEE
:102E600090E0208130E08217930714F06F5F608359
:102E700028E0529F80199109112421E030E0082EAA
:102E800001C0220F0A94EAF7E50FF11D442321F057
:102E90008181822B8183089520958181282321833C
:102EA0000895FC0180810895FC018081882331F020
:102EB00081508695869586958F5F089580E0089568
:102EC000009739F06F3028F4FC01E60FF11D818185
:102ED000089580E00895FC01009711F480E00895C2
:102EE0001182108262832E353105C0F780E090E0B8
:102EF00041155105A1F4DF01A80FB91F13961C92CB
:102F000001968E359105B9F781E00895DF01A80F8C
:102F1000B91F13961C9201968E359105A9F382175D
:102F20009307A0F7DA01A80FB91F6C91A081B181B6
:102F3000AE0FBF1F13966C93608171816F5F7F4FDF
:102F400071836083E8CFAB016115710551F0FB011E
:102F500001900020E9F79F0121503109261B370B12
:102F600002C020E030E060E00C946B17CF93DF9359
:102F7000FA01009711F1309701F1228121111DC052
:102F80002081318126173707C0F4DC0120E030E0D2
:102F90002617370781F0808191812817390730F48F
:102FA000EF01C20FD31F8B818C9301C01C922F5F46
:102FB0003F4F1196EDCF81E001C080E0DF91CF91CE
:102FC0000895009711F00396089580E090E0089529
:102FD000009721F0FC0180819181089580E090E0CC
:102FE0000895009719F0FC018281089580E008950A
:102FF000AF92BF92CF92DF92EF92FF920F931F9307
:10300000CF93DF93EC016901009771F180E1888330
:1030100019829A01AB0168E070E0CE0102960E942D
:103020002A1402965C01A60160E070E0CE018A0DD0
:103030009B1D0E94AF15A80EB91EA801662757FD5B
:103040006095762FCE018A0D9B1D0E94F415A80E67
:10305000B91EA70160E070E0CE018A0D9B1D0E94A1
:10306000AF158A0D9B1D02C080E090E0DF91CF91EB
:103070001F910F91FF90EF90DF90CF90BF90AF9096
:103080000895AF92BF92CF92DF92EF92FF920F938B
:103090001F93CF93DF93CDB7DEB72F970FB6F8947A
:1030A000DEBF0FBECDBF7C016B018A011F86198672
:1030B0001A861B861C861E861D861D821E821F8206
:1030C000188619821A821B821C824115510509F447
:1030D00089C06730710518F48FE390E07FC060E02D
:1030E000C7010E94C212882309F46CC0A8014E5F78
:1030F0005F4FBE01635F7F4FC70101960E94971328
:1031000001965C018D859E85F80191838083AE01D7
:10311000475F5F4FBE01615F7F4FC7018A0D9B1DF7
:103120000E944112A80EB91E8F85813009F04AC055
:1031300049855A856B857C859E012B5F3F4FC70172
:103140008A0D9B1D0E94CD15A80EB91E8D819E81F2
:10315000AF81B885F80186839783A087B187AC14C7
:10316000BD0498F5AE01475F5F4FBE01615F7F4FC1
:10317000C7018A0D9B1D0E944112A80EB91E8F85A2
:10318000823001F5AC14BD04E8F449855A856B859D
:103190007C859E012F5F3F4FC7018A0D9B1D0E94BA
:1031A000FA14A80EB91E89819A81AB81BC81F801FD
:1031B00082879387A487B587AC14BD04C0F481E4EB
:1031C00090E00CC08EE390E009C08FEF9FEFDC0130
:1031D000F80182879387A487B58709C0F801958B8A
:1031E000848B07C06115710521F4A12CB12CC50198
:1031F00002C08DEF9FEF2F960FB6F894DEBF0FBE83
:10320000CDBFDF91CF911F910F91FF90EF90DF9095
:10321000CF90BF90AF900895EF92FF920F931F93BE
:10322000CF93DF93EC017A010097E9F180E3888383
:1032300069838CE08A83FA010281138124813581BC
:103240004081518160E0CE0103960E94FF138C0102
:103250000D5F1F4FF701268137814085518561E061
:10326000CE01800F911F0E941216080F191FF7013F
:1032700022853385448555852F3FFFEF3F074F0754
:103280005F0741F062E0CE01800F911F0E946C1534
:10329000080F191F63E0CE01800F911F0E94F811E3
:1032A000800F911F02C080E090E0DF91CF911F91CD
:1032B0000F91FF90EF900895009719F063E00C9440
:1032C0000F1280E090E008958F929F92AF92BF928C
:1032D000CF92DF92EF92FF920F931F93CF93DF93E2
:1032E000CDB7DEB72F970FB6F894DEBF0FBECDBFB8
:1032F0008C016B017A011F8619861A861B861C8633
:103300001E861D861D821E821F82188619821A82C1
:103310001B821C826115710509F4DDC04115510540
:1033200009F4D9C060E00E94C212811102C08FEF7F
:10333000DAC0A7014E5F5F4FBE01635F7F4FC801D8
:1033400001960E94971301965C018D859E85F70179
:1033500091838083AE01475F5F4FBE01615F7F4F06
:10336000C8018A0D9B1D0E944112A80EB91E8F85AF
:103370008130E9F649855A856B857C859E012B5FF6
:103380003F4FC8018A0D9B1D0E94CD15A80EB91E86
:103390008D819E81AF81B885F70186839783A08751
:1033A000B187AE01475F5F4FBE01615F7F4FC801CC
:1033B0008A0D9B1D0E9441122F852230A9F4A80E70
:1033C000B91E49855A856B857C859E012F5F3F4FCD
:1033D000C8018A0D9B1D0E94FA14A80EB91E89818E
:1033E0009A81AB81BC8103C08FEF9FEFDC01F701B5
:1033F00082879387A487B58748018A0C9B1C63E06A
:10340000C4010E94E212882309F491CF2D813E81EC
:103410004F815885B6016A197B09C4010E94661D57
:10342000F701EE58FF4F91838083FFEFAF1ABF0A79
:1034300020E030E0281739075CF4F401E20FF31FB5
:103440004181F701E20FF31F46872F5F3F4FF2CF15
:10345000A80EB91E63E0C8018A0D9B1D0E940313CC
:103460008823E1F12FEFA21AB20A84E7E80EF11CDB
:1034700080E1F7018083AC14BD0490F5AE01475F95
:103480005F4FBE01615F7F4FC8018A0D9B1D0E9487
:1034900041122F85243021F58A0D9B1D49855A85BF
:1034A0006B857C859E012F5F3F4F800F911F0E948F
:1034B000FA1409811A812B813C81B901A80141507C
:1034C000510961097109403151056105710550F4D7
:1034D000F701008309C080E090E006C08EEF03C0D2
:1034E000C50102C08BEF9FEF2F960FB6F894DEBF99
:1034F0000FBECDBFDF91CF911F910F91FF90EF9045
:10350000DF90CF90BF90AF909F908F9008958F9253
:103510009F92AF92BF92CF92DF92EF92FF920F9362
:103520001F93CF93DF93CDB7DEB729970FB6F894EB
:10353000DEBF0FBECDBF6C015B017A018901198628
:103540001D821E821F82188619821A821B821C828B
:103550006115710509F468C0AE014B5F5F4FBE0194
:10356000675F7F4F0E9441124C018985882319F0C3
:103570008FEF9FEF72C08A149B04D0F74D815E815C
:103580006F8178859E012F5F3F4FC601880D991D81
:103590000E94FA14880E991E89819A81AB81BC81A0
:1035A000009720E4A207B10540F4E114F10429F0EA
:1035B000F70180839183A283B3838A149B04C0F6AE
:1035C000AE014B5F5F4FBE01675F7F4FC601880D45
:1035D000991D0E944112880E991E8985813041F6FD
:1035E0008A149B0428F64D815E816F8178859E0147
:1035F0002F5F3F4FC601880D991D0E94FA14880E57
:10360000991E49815A816B817C8141155105F0E4F5
:103610006F07710508F501151105F1F0F8014083F8
:1036200051836283738318C04115510541F08FEFB8
:103630009FEFDC01FA0180839183A283B38301159C
:10364000110541F08FEF9FEFDC01F801808391833A
:10365000A283B383812C912CC40129960FB6F894D0
:10366000DEBF0FBECDBFDF91CF911F910F91FF90B5
:10367000EF90DF90CF90BF90AF909F908F90089584
:10368000FC01009759F0222311F081E701C080E787
:1036900080836183428383E090E0089580E090E03E
:1036A0000895FC01009739F080E6808361834283AE
:1036B00083E090E0089580E090E00895EF92FF921B
:1036C0000F931F93CF93DF93EC010097C1F090E528
:1036D000988369834A83A90160E070E0CE01039674
:1036E0000E94F41503967C01A80160E070E0CE0111
:1036F0008E0D9F1D0E94F4158E0D9F1D02C080E04F
:1037000090E0DF91CF911F910F91FF90EF9008957E
:10371000DF92EF92FF920F931F93CF93DF9300D02E
:1037200000D000D0CDB7DEB7D62EBA01A9017801FE
:10373000009709F44AC00115110509F446C027E0B5
:10374000D216B1F12D1560F0E2E0DE1659F1F4E089
:10375000DF123BC098012D5F3F4F0E94031733C01B
:1037600029E0D21659F1ECE0DE122FC01E821D8234
:1037700019821A821B821C828E010F5F1F4F9E01CD
:103780002B5F3F4F0E94D3132D813E81F70134837D
:10379000238349815A816B817C814583568367836A
:1037A000708711C098012D5F3F4F0E94FA140BC023
:1037B00098012D5F3F4F0E94DE1405C098012D5FD8
:1037C0003F4F0E94CD15009771F4F1E0FD1548F4CC
:1037D00026E0D21631F0E114F10419F080E1F7018E
:1037E000828380E090E026960FB6F894DEBF0FBE8D
:1037F000CDBFDF91CF911F910F91FF90EF90DF90A0
:103800000895AF92BF92CF92DF92EF92FF920F9303
:103810001F93CF93DF9300D000D01F92CDB7DEB7B8
:103820006C017A011D8219821A821B821C82009708
:10383000A1F14115510589F1FC01808183FD2DC065
:10384000FA011082AE014F5F5F4FBE016B5F7F4F89
:10385000C6010E9441125C010097A1F06D81F70141
:10386000628329813A814B815C818701C6018A0D7F
:103870009B1D0E94881BF7012281203131F08A0DA7
:103880009B1D05C080E090E002C08FEF9FEFF70125
:10389000EC59FF4F1182108202C080E090E00F903F
:1038A0000F900F900F900F90DF91CF911F910F917C
:1038B000FF90EF90DF90CF90BF90AF900895892B4D
:1038C00029F062506B3010F4C901089580E090E057
:1038D0000895EF92FF920F931F93CF93DF9300D041
:1038E00000D01F92CDB7DEB78C011D8219821A82DB
:1038F0001B821C82009719F480E090E01CC0FC0140
:10390000808183FDF9CFAE014F5F5F4FBE016B5FDA
:103910007F4FC8010E9441127C01009769F3298101
:103920003A814B815C816D81C8018E0D9F1D0E9483
:103930005F1C8E0D9F1D0F900F900F900F900F909A
:10394000DF91CF911F910F91FF90EF900895643810
:1039500071058105910509F447C0C0F4663271050F
:1039600081059105E1F130F4623071058105910521
:1039700079F157C0653371058105910509F440C09F
:103980006636710581059105D9F14BC0643D71051D
:1039900081059105B1F058F46839710581059105EB
:1039A00091F1633D71058105910539F13AC0663D9C
:1039B00071058105910529F06A3D71058105910523
:1039C00081F5423040F1423061F584E090E00895A5
:1039D000493038F5E42FF0E0ED5EFD4F0BC041308B
:1039E000E9F04330C1F01DC04430D8F4E42FF0E0DA
:1039F000E15FFD4F808190E00895423078F011C082
:103A0000442361F00EC04250433058F4E42FF0E0FC
:103A1000E45FFD4FEFCF82E090E008958CE090E00E
:103A2000089580E190E00895AF92BF92CF92DF9227
:103A3000EF92FF920F931F93CF93DF9300D000D0AC
:103A40001F92CDB7DEB75C0169017A011D82198230
:103A50001A821B821C82009719F480E090E026C035
:103A6000FC01808183FFF9CFAE014F5F5F4FBE0144
:103A70006B5F7F4FC5010E9441128C01009769F373
:103A80004D81C701B6010E94A71C803158F42981DD
:103A90003A814B815C81682FC501800F911F0E9484
:103AA0005F1C02C089819A81800F911F0F900F9037
:103AB0000F900F900F90DF91CF911F910F91FF907A
:103AC000EF90DF90CF90BF90AF9008954F925F92AC
:103AD0006F927F928F929F92AF92BF92CF92DF921E
:103AE000EF92FF920F931F93CF93DF9300D000D0FC
:103AF0001F92CDB7DEB76C015B0129013A011D822F
:103B000019821A821B821C82FC0180818770863098
:103B100009F04FC0AE014F5F5F4FBE016B5F7F4F3B
:103B2000C6010E9441127C018D809924939400E08B
:103B300010E0C6018E0D9F1DFC012081322F3770D1
:103B4000363069F4AE014F5F5F4FBE016B5F7F4F50
:103B50000E9441122D8128111DC093941BC0373043
:103B600069F4AE014F5F5F4FBE016B5F7F4F0E94F4
:103B700041122D8128110EC09A940CC0B5016E1906
:103B80007F0923FF05C0A30192010E94141D02C0FA
:103B90000E94691CE80EF91E992029F018161906D2
:103BA0005CF4080F191FAE14BF0430F09110C1CFA0
:103BB00005C000E010E002C00FEF1FEFC8010F903A
:103BC0000F900F900F900F90DF91CF911F910F9159
:103BD000FF90EF90DF90CF90BF90AF909F908F902D
:103BE0007F906F905F904F90089582E0089580E0FD
:103BF00008958EEA93E008950E942A20089544E0F3
:103C000050E081E090E00E946820089544E050E098
:103C100085E090E00E946820089544E050E085E04F
:103C200090E00E945921089546E050E089E090E03C
:103C30000E946820089544E050E08FE090E00E94E8
:103C40006820089544E050E08FE090E00E94592100
:103C500008950E943E210895962F80E08D5F9B4F2E
:103C60000E94912008950E94B91E08950E94F91E95
:103C700008950F931F930E940D1F1F910F91089598
:103C80000F931F930E94611F1F910F910895382F6A
:103C900020E044E050E0C901845F9B4F0E9468200F
:103CA0000895282F30E02C5F3F4F922F8827860FF2
:103CB000971F0E949120089562E070E00E94511EBB
:103CC0000895FB01282F30E02C5F3F4F922F88276B
:103CD000642F8E0F9F1F0E940A200895462F62E0D6
:103CE00070E00E94611E0895CF93DF93C82FD62FF6
:103CF000472F60E170E00E94611E4D2F61E170E08E
:103D00008C2F0E94611EDF91CF910895CF93DF9396
:103D1000C82FD62F472F68E270E00E94611E4D2FFA
:103D200069E270E08C2F0E94611EDF91CF910895AF
:103D3000CF93DF93C82FD62F472F64E070E00E9407
:103D4000611E4D2F65E070E08C2F0E94611EDF9197
:103D5000CF910895CF93C82F40E150E0682F8EEAAD
:103D600093E00E94B6216FEF8C2F0E946E1ECF91C0
:103D70000895EF92FF921F93CF93DF9300D0CDB7BA
:103D8000DEB7182F7A01862F8150853048F5812FB4
:103D90002A8369830E94AA1E2A816981422F462BA9
:103DA00060E070E0812F0E94611EE114F10411F0C7
:103DB000B7010AC06091AC037091AD036F5F7F4F94
:103DC0007093AD036093AC03812F0E94981E41E075
:103DD00050E0612F8EEA93E00E94B62181E001C09D
:103DE00080E00F900F90DF91CF911F91FF90EF90A7
:103DF0000895CF93C82F63E070E00E94511E833175
:103E000049F442E050E06C2F8EEA93E00E94B62124
:103E100081E001C080E0CF910895A0E0B0E0E3E14F
:103E2000FFE10C945D23D82E7B01F9018081811183
:103E300009C08181811106C08281811103C0838103
:103E40008823B9F101151105A1F1EA01413088E09B
:103E5000580710F0C0E0D8E0209769F1BF018D2D20
:103E60000E94471EB8018D2D0E94741E9E01A7015D
:103E70006D2D8EEA93E00E941F2140E250E06D2DEF
:103E80008EEA93E00E94B6210AC08D2D0E945C1E2E
:103E900083FF05C068E18D2D0E946E1E0AC08D2D26
:103EA0000E945C1E84FFF1CF60E18D2D0E946E1E8A
:103EB00002C0C0E0D0E0CE01CDB7DEB7E7E00C94A1
:103EC0007923A8E0B0E0E7E6FFE10C945723782ED1
:103ED0005B0179014801452B09F48BC068E270E071
:103EE0000E94511E182F69E270E0872D0E94511E1A
:103EF000D12EC12CC82A60E070E0872D0E94511E8F
:103F00008770833049F1843009F443C0823009F06E
:103F100066C008E010E09E012F5F3F4FA601672DAD
:103F20008EEA93E00E94832128E0C20ED11C898191
:103F3000F70180838A8181838B8182838C81838353
:103F40009D8180E02E81820F911DF40191838083F9
:103F5000FF80E12C88851AC006E010E09E012F5FEB
:103F60003F4FA601672D8EEA93E00E948321F6E081
:103F7000CF0ED11C8981F70180838A8181838B8157
:103F800082838C818383FD80E12C8E81E80EF11C7D
:103F900017C002E010E09E012F5F3F4FA601672D82
:103FA0008EEA93E00E948321F2E0CF0ED11C99812A
:103FB00080E0EA80F12C22E0E21AF108E80EF91E16
:103FC00087019501A601672D8EEA93E00E94832167
:103FD000B6016E0D7F1D872D0E94861E02C0E12C4A
:103FE000F12C40E450E0672D8EEA93E00E94B62168
:103FF00002C0E12CF12CC7012896EDE00C9473234C
:104000008EBD0DB407FEFDCF8EB508952A98089594
:104010002A9A0895A2E0B0E0E0E1F0E20C94612376
:10402000182F6A8399830E94062080EF0E94002047
:104030009981892F0E940020812F0E9400206A818F
:10404000862F0E9400200E94082081E02296E3E053
:104050000C947D23CF93DF93EC016CE271E080E060
:1040600090E00E94B8220E94C621229A60E880E077
:1040700090E00E940A2065E58BE190E00E940A2012
:1040800065E58AE190E00E940A2080E090E499834F
:10409000888380E090E69987888780E098E49B8316
:1040A0008A8380E098E69B878A8780E090E59D83FD
:1040B0008C8380E090E79D878C8780E098E59F83E4
:1040C0008E8380E098E79F878E87DF91CF91089558
:1040D000A0E0B0E0EEE6F0E20C945C23EC017A01A3
:1040E0008B016A01C80ED91E13C00E94062080EF02
:1040F0000E9400208D2F0E9400208C2F0E94002003
:104100002196F80181918F010E9400200E940820D1
:10411000CC15DD0551F7C701CDB7DEB7E8E00C944B
:104120007823A1E0B0E0E7E9F0E20C946123182FD6
:1041300099830E9406208FE00E9400209981892F98
:104140000E940020812F0E94002080E00E94002019
:1041500089830E94082089812196E3E00C947D23C5
:104160006F927F929F92AF92BF92CF92DF92EF9227
:10417000FF920F931F93CF93DF931F92CDB7DEB7BC
:10418000F82E962E3A01590164E270E0892D998348
:104190000E94511EE82E65E270E0892D0E94511E9A
:1041A000DE2CC12CC82AC60CD71C960137706F2C88
:1041B0009981792E690C711C690C711CD301ED91E8
:1041C000FC91E20FF31FC901800F911F81309840CD
:1041D000A0F0E12C48E0F42EE21AF30AA701B501A1
:1041E000CF010E946820A8014E195F09B5016E0D2C
:1041F0007F1DF3018081918103C0A801B501CF012A
:104200000E9468200C0D1D1D412F64E270E0892D75
:104210000E94611E402F65E270E0892D0E94611EA0
:104220000F90DF91CF911F910F91FF90EF90DF9052
:10423000CF90BF90AF909F907F906F9008950F9315
:104240001F9389019A0140E050E00E94B0201F9125
:104250000F910895CF93DF93C82F66E270E00E941C
:10426000511ED82F67E270E08C2F0E94511E3D2F07
:1042700020E0282BC901DF91CF910895FF920F9381
:104280001F93CF93DF93F62EC0E0D0E08F2D0E94D6
:104290002A218C01009721F08F2D0E942A21EC0108
:1042A000C017D10799F7CE01CDB7DEB7E5E00C9482
:1042B0007B23A0E0B0E0EFE5F1E20C945C23EC019D
:1042C0007A018B016A01C80ED91E14C00E94062013
:1042D0008FE00E9400208D2F0E9400208C2F0E94D2
:1042E0000020219680E00E940020F80181938F0138
:1042F0000E940820CC15DD0549F7C701CDB7DEB710
:10430000E8E00C947823A0E0B0E0E9E8F1E20C9456
:104310005C2369015770EC01C60FD11DC60FD11D7A
:10432000289688819981840F951F9801240F351F45
:104330002130384090F0E12C68E0F62EE41AF50ABE
:10434000A701B6010E945921A8014E195F09B601C3
:104350006E0D7F1D8881998102C0A801B6010E945F
:104360005921CDB7DEB7E8E00C947823CF93C62F60
:1043700061E070E08C2F0E94611E61E070E08C2F84
:104380000E94511E8111F9CFCF91089561E08AE01A
:104390000E941C2261E08AE00E94DD218CB58061D0
:1043A0008CBD8CB580648CBD61E08DE00E94DD2108
:1043B00061E08BE00E94DD210895CF93DF93482FC9
:1043C00050E0CA0182559F4FFC01349146565F4F21
:1043D000FA018491882369F190E0880F991FFC010C
:1043E000E458FF4FA591B491FC01EA57FF4FC591E6
:1043F000D491662351F42FB7F8948C91932F909514
:1044000089238C93888189230BC0623061F42FB794
:10441000F8948C91932F909589238C938881832B8A
:1044200088832FBF06C09FB7F8948C91832B8C9301
:104430009FBFDF91CF910895482F50E0CA018E535E
:104440009F4FFC012491CA0182559F4FFC0194911A
:1044500046565F4FFA013491332309F440C02223BA
:1044600051F1233071F0243028F42130A1F02230B2
:1044700011F514C02630B1F02730C1F02430D9F442
:1044800004C0809180008F7703C0809180008F7D71
:104490008093800010C084B58F7702C084B58F7D73
:1044A00084BD09C08091B0008F7703C08091B000B7
:1044B0008F7D8093B000E32FF0E0EE0FFF1FEA57EF
:1044C000FF4FA591B4912FB7F894662321F48C91F6
:1044D0009095892302C08C91892B8C932FBF0895CE
:1044E0001F920F920FB60F9211242F933F938F9329
:1044F0009F93AF93BF938091C2039091C303A09108
:10450000C403B091C5033091C6030196A11DB11D2E
:10451000232F2D5F2D3720F02D570196A11DB11DA2
:104520002093C6038093C2039093C303A093C40354
:10453000B093C5038091BE039091BF03A091C003C7
:10454000B091C1030196A11DB11D8093BE0390934C
:10455000BF03A093C003B093C103BF91AF919F91DC
:104560008F913F912F910F900FBE0F901F90189534
:104570009B01AC017FB7F8948091BE039091BF037B
:10458000A091C003B091C10366B5A89B05C06F3F61
:1045900019F00196A11DB11D7FBFBA2FA92F982F29
:1045A0008827860F911DA11DB11D62E0880F991FFC
:1045B000AA1FBB1F6A95D1F7BC012DC0FFB7F894A5
:1045C0008091BE039091BF03A091C003B091C1033D
:1045D000E6B5A89B05C0EF3F19F00196A11DB11DDE
:1045E000FFBFBA2FA92F982F88278E0F911DA11DCD
:1045F000B11DE2E0880F991FAA1FBB1FEA95D1F7F2
:10460000861B970B885E9340C8F221503040404093
:10461000504068517C4F211531054105510571F617
:104620000895789484B5826084BD84B5816084BD2A
:1046300085B5826085BD85B5816085BDEEE6F0E01B
:10464000808181608083E1E8F0E010828081826077
:104650008083808181608083E0E8F0E080818160F8
:104660008083E1EBF0E0808184608083E0EBF0E028
:10467000808181608083EAE7F0E0808184608083CC
:104680008081826080838081816080838081806876
:1046900080831092C1000895EE0FFF1F0590F491E2
:1046A000E02D09942F923F924F925F926F927F92EA
:1046B0008F929F92AF92BF92CF92DF92EF92FF9232
:1046C0000F931F93CF93DF93CDB7DEB7CA1BDB0BDE
:1046D0000FB6F894DEBF0FBECDBF09942A88398883
:1046E00048885F846E847D848C849B84AA84B9848A
:1046F000C884DF80EE80FD800C811B81AA81B98196
:10470000CE0FD11D0FB6F894DEBF0FBECDBFED01A9
:104710000895FB01DC0102C001900D924150504010
:10472000D8F70895A0E0B0E0E8E9F3E20C94622342
:10473000AE01475F5F4F6F8178858D819E810E94BA
:10474000A423E2E00C947E23ACE0B0E0EAEAF3E2DA
:104750000C9452237C016B018A01FC0117821682A2
:10476000838181FFBDC1CE0101964C01F701938188
:10477000F60193FD859193FF81916F01882309F4E0
:10478000ABC1853239F493FD859193FF81916F011F
:10479000853229F4B70190E00E948C25E7CF512C97
:1047A000312C20E02032A0F48B3269F030F48032DA
:1047B00059F0833269F420612CC08D3239F0803396
:1047C00039F4216026C02260246023C0286021C003
:1047D00027FD27C030ED380F3A3078F426FF06C0A9
:1047E000FAE05F9E300D1124532E13C08AE0389EEC
:1047F000300D1124332E20620CC08E3221F426FDA0
:104800006BC1206406C08C3611F4206802C0883663
:1048100041F4F60193FD859193FF81916F01811120
:10482000C1CF982F9F7D9554933028F40C5F1F4F74
:10483000FFE3F9830DC0833631F0833771F08335A0
:1048400009F05BC022C0F801808189830E5F1F4F91
:1048500044244394512C540115C03801F2E06F0EEA
:10486000711CF801A080B18026FF03C0652D70E0A7
:1048700002C06FEF7FEFC5012C870E9481252C01BC
:1048800083012C852F77222E17C03801F2E06F0E9E
:10489000711CF801A080B18026FF03C0652D70E077
:1048A00002C06FEF7FEFC5012C870E9476252C0197
:1048B0002C852068222E830123FC1BC0832D90E0D1
:1048C00048165906B0F4B70180E290E00E948C25AA
:1048D0003A94F4CFF50127FC859127FE81915F0181
:1048E000B70190E00E948C2531103A94F1E04F1A04
:1048F00051084114510471F7E5C0843611F089362E
:1049000039F5F80127FF07C06081718182819381A9
:104910000C5F1F4F08C060817181882777FD8095EB
:10492000982F0E5F1F4F2F76B22E97FF09C09095DC
:104930008095709561957F4F8F4F9F4F2068B22E65
:104940002AE030E0A4010E94BE25A82EA81844C089
:10495000853729F42F7EB22E2AE030E025C0F22FD1
:10496000F97FBF2E8F36C1F018F4883579F0B4C0C6
:10497000803719F0883721F0AFC02F2F2061B22E79
:10498000B4FE0DC08B2D8460B82E09C024FF0AC070
:104990009F2F9660B92E06C028E030E005C020E1C8
:1049A00030E002C020E132E0F801B7FE07C06081CC
:1049B0007181828193810C5F1F4F06C0608171817C
:1049C00080E090E00E5F1F4FA4010E94BE25A82E3C
:1049D000A818FB2DFF77BF2EB6FE0BC02B2D2E7F08
:1049E000A51450F4B4FE0AC0B2FC08C02B2D2E7ED4
:1049F00005C07A2C2B2D03C07A2C01C0752C24FF06
:104A00000DC0FE01EA0DF11D8081803311F4297E75
:104A100009C022FF06C07394739404C0822F867865
:104A200009F0739423FD13C020FF06C05A2C7314A1
:104A300018F4530C5718732C731468F4B70180E200
:104A400090E02C870E948C2573942C85F5CF7314ED
:104A500010F4371801C0312C24FF12C0B70180E3D5
:104A600090E02C870E948C252C8522FF17C021FF07
:104A700003C088E590E002C088E790E0B7010CC071
:104A8000822F867859F021FD02C080E201C08BE2BE
:104A900027FD8DE2B70190E00E948C25A51438F423
:104AA000B70180E390E00E948C255A94F7CFAA9436
:104AB000F401EA0DF11D8081B70190E00E948C2580
:104AC000A110F5CF332009F451CEB70180E290E078
:104AD0000E948C253A94F6CFF7018681978102C017
:104AE0008FEF9FEF2C96E2E10C946E23FC01059072
:104AF000615070400110D8F7809590958E0F9F1FE0
:104B00000895FC016150704001900110D8F7809524
:104B100090958E0F9F1F08950F931F93CF93DF9350
:104B2000182F092FEB018B8181FD03C08FEF9FEFC1
:104B300020C082FF10C04E815F812C813D814217D1
:104B400053077CF4E881F9819F012F5F3F4F398340
:104B50002883108306C0E885F985812F0995892B64
:104B600029F72E813F812F5F3F4F3F832E83812F77
:104B7000902FDF91CF911F910F910895FA01AA27ED
:104B8000283051F1203181F1E8946F936E7F6E5F90
:104B90007F4F8F4F9F4FAF4FB1E03ED0B4E03CD03E
:104BA000670F781F891F9A1FA11D680F791F8A1F21
:104BB000911DA11D6A0F711D811D911DA11D20D088
:104BC00009F468943F912AE0269F11243019305D42
:104BD0003193DEF6CF010895462F4770405D419333
:104BE000B3E00FD0C9F7F6CF462F4F70405D4A3380
:104BF00018F0495D31FD4052419302D0A9F7EACF48
:104C0000B4E0A6959795879577956795BA95C9F776
:104C100000976105710508959B01AC010A2E069469
:104C20005795479537952795BA95C9F7620F731F22
:0C4C3000841F951FA01D0895F894FFCF6D
:104C3C000000DD0320000000000100000000000067
:104C4C00FF0000000000000200000000F000000067
:104C5C000000FFFFFF00C0A80101C0A801B9DEAD34
:104C6C00BEEFFEED004D792044657669636500006A
:104C7C00000000000000000000A1F7030041562DC9
:104C8C00000042562D3000044241436E657420539F
:104C9C007461636B20617420536F75726365466F2A
:104CAC0072676500474E552044656D6F00302E3994
:104CBC002E3100312E3000496E7465726661636569
:104CCC003A2025730A00495020416464726573735D
:104CDC003A2025642E25642E25642E25640A00496D
:104CEC00502042726F61646361737420416464721A
:104CFC006573733A2025642E25642E25642E256455
:104D0C000A00657468300042564C433A2052657371
:104D1C00756C7420436F64653D25640A0042564CE3
:104D2C00433A204E414B20636F64653D25640A0075
:104D3C0032008000CE00E0010004C4050102040C26
:0C4D4C0009020C0C0C090210020201010B
:00000001FF
